VERSION 14.3-37.0
CROSS (OR CREF) - VERSION 14.3-37.0	MACRO %53B(1156)-1 17:40 25-Feb-88 Page 1
CROSS	MAC	15-Sep-76 01:35		CROSS REFERENCE GENERATION PROGRAM -AUG 21,1975

     1			000014			TYMSPC==14		;TYMSHARE SPEC OF CREF
     2			000003			TYMREL==3		;RELEASE OF TYMSHARE SPEC
     3			000037			DECSPC==37		;DIGITAL VERSION
     4			000000			DECREL==0		;RELEASE OF DEC VERSION
     5
     6					DEFINE TITL(TS,TR,DS,DR)<
     7					TITLE	CROSS (OR CREF) - VERSION TS'.'TR'-'DS'.'DR
     8					SUBTTL	CROSS REFERENCE GENERATION PROGRAM -AUG 21,1975
     9					IF1,<PRINTX VERSION TS'.'TR'-'DS'.'DR>
    10					VCREF==BYTE(8)DS,TS,DR,TR>
    11
    12						TITL(\TYMSPC,\TYMREL,\DECSPC,\DECREL)^
    13
    14	000137					LOC	137
    15	000137	076060	000060		JOBVER:	VCREF
    16	000000'					RELOC
    17					EXTERNAL	JOBFF,	JOBREL,	JOBDDT,	JOBSYM
    18					INTERNAL	CREF
    19
    20					IFNDEF TEMPC,<TEMPC==1>	;TMPCOR UUO ALLOWED IF SET TO 1
    21					;ACCUMULATOR DEFINITIONS
    22			000000		AC0==0
    23			000001		TEMP==1
    24			000002		TEMP1==2
    25			000003		WPL==3	;CONTAINS COUNT OF HOW MANY REFERENCES/LINE IN LISTING
    26			000003		RC==WPL
    27			000004		SX==4
    28			000005		BYTEX==5
    29			000006		BYTEM==6
    30			000006		TX==BYTEM
    31			000006		TIO==6	;AC USED FOR MTAPE FLAGS IN COMMAND SCANNER LOGICTX==BYTEM
    32			000007		C==7
    33			000010		CS==10
    34			000011		LINE==11	;HOLDS LINE #
    35			000012		FLAG==12
    36			000013		FREE==13	;POINTS TO HIGH END OF INCREMENT BYTE TABLE
    37			000015		TOP==15	;CONTAINS HIGHEST AVAILABLE ADR IN MEMORY
    38			000016		IO==16	;HOLDS FLAGS
    39			000017		P==17	;PUSH DOWN POINTER
    40
    41					;DEFINITIONS FOR LENGTHS OF LINES AND PAGES
    42			000016		WPLLPT==^D14	;IN OUTPUT LPT LISTING, 14 REFERENCES/LINE
    43			000010		WPLTTY==8	;IN OUTPUT TTY LISTING, 8 REFERENCES/LINE
    44			000070		.LPP==^D56	;LINES PER PAGE IN LISTING
    45			000030		PDL==30		;PUSH DOWN STACK LENGTH
    46
    47			000001		IOLST==	000001	;IF 1, SUPPRESS PROGRAM LISTING
    48			000002		IONCRF==000002	;1 IF COMMAND STRING SEARCH LIMITS BEING USED
    49			000004		IOPAGE==000004	;IF 1, DO A FORM FEED
    50			000010		IOFAIL==000010	;1 IF "NEW STYLE" CREF DATA HAS BBEN SEEN
    51			000020		IODEF==	000020	;1 IF SYMBOL IS A DEFINING OCCURRANCE
    52			000040		IOENDL==000040
    53			000100		IORPG==	000100	;1 IF RPG SYSTEM IN USE (SET BY STATTING AT (JOBSA)+1)
    54			000200		IOTABS==000200	;"RUBOUT A" SEEN AT AND OF CREF DATA (INSERT TAB IN LISTING)
    55			000400		IOEOF==	000400	;END OF FILE SEEN
CROSS (OR CREF) - VERSION 14.3-37.0	MACRO %53B(1156)-1 17:40 25-Feb-88 Page 1-1
CROSS	MAC	15-Sep-76 01:35		CROSS REFERENCE GENERATION PROGRAM -AUG 21,1975

    56			001000		IONLZ==	001000	;LEADING ZERO TEST
    57			002000		IOTB2==	002000	;FOR F4
    58			010000		IOSAME==10000	;TO SYMBOLS WITH SAME BLOCK NAME
    59			004000		IOTTY==	004000	;1 IF LISTING DEVICE IS TTY
    60			040000		IOSYM==	040000	;SYMBOL DEFINED WITH = OR :
    61			100000		IOMAC==	100000	;MACRO NAME
    62			200000		IOOP==	200000	;OPDEF, OP CODE, OR PSEUDO INSTRUCTION OCCURRANCE
    63			020000		IODF2==	020000	;DEFINING OCCURRANCE OF A SYMBOL
    64
    65					;RIGHT HALF OF IO
    66			000001		IOCMB==1	;COMBINE FORTRAN PROGRAMS ON SAME FILE
    67			000002		IOJLST==2	;JUST LIST. DO NOT CHECK CREF INFO
    68			000004		IOSOUT==4	;SPECIAL OUTPUT TO A SWEET PROGRAM
    69			000010		IOERR==10	;WE HAVE GIVEN THE ILLEGAL INPUT FORMAT MESSAGE
    70			000020		IOEXT==20	;DEF IS EXTERNAL
    71			000040		IOSUBT==40	;TITLE CONTAINS CR-LF (SUBTITLE)
    72
CROSS (OR CREF) - VERSION 14.3-37.0	MACRO %53B(1156)-1 17:40 25-Feb-88 Page 2
CROSS	MAC	15-Sep-76 01:35		CROSS REFERENCE GENERATION PROGRAM -AUG 21,1975

    73					;DEFINITIONS FOR "OLD STYLE" CODES FROM VARIOUS PROCESSORS
    74			000033		%OP==33
    75			000034		%MAC==34
    76			000035		%LINE==35
    77			000036		%SYM==36
    78			000037		%EOF==37	;MULTIPLE-PROGRAM BREAK CHARACTER
    79			000145		HASH==^D101	;HASH CODE TO USE FOR SYMBOL TABLE
    80
    81			000000		A==0		;ASCII MODE
    82			000001		AL==1		;ASCII LINE MODE
    83
    84			000001		CTLI==1		;CONTROL DEVICE NUMBER (INPUT)
    85			000002		CHAR==2			;INPUT DEVICE NUMBER
    86			000003		LST==3			;LISTING DEVICE NUMBER
    87			000004		SOP==4		;SPECIAL OUTPUT CHANEL
    88
    89					;	COMMAND STRING ACCUMULATORS
    90
    91			000001		ACDEV==TEMP			;DEVICE
    92			000002		ACFILE==TEMP1			;FILE
    93			000006		ACEXT==TX			;EXTENSION
    94			000004		ACDEL==4			;DELIMITER
    95			000005		ACPNTR==5			;BYTE POINTER
    96
    97					;FLAGS USED IN AC TIO
    98
    99			001000		TIORW==1000	;MTAPE REWIND FLAG
   100			002000		TIOLE==2000	;SET(BUT NOT USED ANYWHERE) BY BACKSPACE REQUEST
   101			020000		TIOCLD==20000	;CLEAR DIRECTORY FLAG
   102
   103		047000	000000		OPDEF	RESET	[CALLI	 0]
   104		047000	000004		OPDEF	DEVCHR	[CALLI	 4]
   105		072000	000000		OPDEF	WAIT	[MTAPE	 0]
   106		047000	000011		OPDEF	CORE	[CALLI	11]
   107		047000	000013		OPDEF	UTPCLR	[CALLI	13]
   108
   109		047000	000003		OPDEF	DDTOUT	[CALLI 3]
   110		047000	000012		OPDEF	EXIT	[CALLI 12]
   111			000044		TMPCOR==44	;TMPCOR UUO CALLI #
   112
CROSS (OR CREF) - VERSION 14.3-37.0	MACRO %53B(1156)-1 17:40 25-Feb-88 Page 3
CROSS	MAC	15-Sep-76 01:35		CROSS REFERENCE GENERATION PROGRAM -AUG 21,1975

   113					COMMENT * THIS IS AN EXPLANATION OF THE CREF SYMBOL TABLE
   114					AND LINE NUMBER STORAGE MECANISM. LINE NUMBERS ARE STORED IN
   115					TWO WORD BLOCKS. THE FIRST WORD OF EACH BLOCK IS GUARANTEED
   116					TO HAVE AN EVEN ADDRESS. THE FIRST WORD OF THE BLOCK AND
   117					THE LEFT HALF OF THE SECOND WORD ARE USED TO STORE LINE NUMBERS.
   118					THE RIGHT HALF OF THE SECOND WORD IS A POINTER TO THE NEXT
   119					TWO WORD BLOCK. THE POINTER IS 0 IF THIS IS THE LAST
   120					BLOCK. (THIS IS TRUE OF ALL THINGS REFERED TO AS POINTERS
   121					IN THE FUTURE) LINE NUMBERS ARE STORED IN SIXBIT BYTES.
   122					CREF PICKS UP THE FIRST SIX BIT BYTE. IF THE HIGH ORDER
   123					BIT OF THESE SIX IS 0, THEN CREF HAS ALL OF THE LINE NUMBER.
   124					IF IT IS NON-ZERO, CREF SHIFTS IT LEFT 5 AND ORS IN THE LOW ORDER
   125					FIVE BITS OF THE NEXT SIX BIT BYTE, REPEATING
   126					THIS PROCESS UNTIL IT FINDS A BYTE WITH THE HIGH ORDER BIT 0.
   127					THE LINE NUMBERS THAT ARE STORED ARE RELITIVE. THAT IS THE
   128					NUMBER CALCULATED AS ABOVE IS ADDED TO THE AS LINE NUMBER
   129					TO OBTAIN THE ACTUAL LINE NUMBER. WHEN THE BYTES HAVE
   130					BEEN PICKED UP TO FORM A NUMBER, THE LOW ORDER BIT IS ON
   131					IF A DEFINITION OF THIS SYMBOL OCCURED ON THIS LINE. THE NUMBER
   132					IS THEN SHIFTED RIGHT ONE BEFORE BEING ADDED TO THE
   133					LINE NUMBER ON WHICH THE LAST OCCURANCE OF THIS SYMBOL WAS FOUND.
   134					EXAMPLE:  IF SYMBOL FOO OCCURS ON (OCTAL) LINE NUMBER 100,
   135					107(DEFINITION) 132 AND 167(DEFINITION), THE BYTES LOOK LIKE
   136					44,0,17,41,6,41,33. THE FIRST BYTE HAS
   137					THE 40 BIT ON INDICATING IT SHOULD BE COMBINED WITH THE
   138					SECOND BYTE. THESE TWO BYTES COMBINED GIVE THE NUMBER 200. THE
   139					LOW ORDER BIT IS OFF INDICATING IT IS NOT A DEFINITION. THE
   140					REMAINING BITS INDICATE IT OCCURED 100(OCTAL) LINES AFTER
   141					THE LAST OCCURANCE(0) OR LINE 100. THE NEXT BYTE HAS BIT 40 OFF
   142					SO THATS ALL THERE IS. THE LOW ORDER BIT IS ON SO IT
   143					IS A DEFINITION. THE REMAINING BITS GIVE THE NUMBER 7 SO
   144					THE OCCURANCE IS 7 LINES PASED THE LAST ONE(100) OR 107 ETC.
   145
   146						EACH CHAIN OF SIX BIT BYTES HAS A HEADER CALLED
   147					A "LINE HEADER". THIS IS A TWO WORD BLOCK. THE
   148					FIRST WORD IS A BYTE POINTER INDICATING WHERE TO PLACE THE
   149					NEXT SIX BIT BYTE. THE RIGHT HALF OF THE SECOND WORD POINTS
   150					TO THE FIRST 2 WORD BLOCK OF SIX BIT BYTES. BIT 5 OF
   151					THE SECOND WORD IS ON IF A NON-DEFINING OCCURANCE
   152					WAS ON THE LAST LINE NUMBER, BIT 4 IS ON IF A DEFINING OCCURANCE
   153					AND BOTH ON IF BOTH(THIS IS SO CREF DOES NOT PRINT THE
   154					SAME LINE NUMBER TWICE EVEN THOUGH THE SYMBOL OCCURED TWICE
   155					ON THAT LINE. IT IS WILLING TO PRINT THE NUMBER TWICE, ONCE
   156					AS A NON-DEFINITION AND ONCE AS A DEFINITION)
   157					BIT 3 IS ON IF THE DEFINING OCCURRENCE IN THIS CHAIN IS AN
   158					EXTERNAL STATEMENT.
   159
   160
CROSS (OR CREF) - VERSION 14.3-37.0	MACRO %53B(1156)-1 17:40 25-Feb-88 Page 4
CROSS	MAC	15-Sep-76 01:35		CROSS REFERENCE GENERATION PROGRAM -AUG 21,1975

   161						THERE ARE THREE SYMBOL TABLES KEPT BY CREF. ONE IS FOR
   162					OPCODES, THE SECOND FOR MACROS (AND OPDEFS) THE OTHER FOR
   163					OTHER SYMBOLS. EACH SYMBOL TABLE HAS A BLOCK WHICH
   164					IS HASH WORDS LONG. A SYMBOL IS DEVIDED BY HASH AND THE
   165					REMAINDER TAKEN. THIS ENTRY OF THE BLOCK IS A LINKED LIST
   166					OF SYMBOLS WITH THIS "HASH CODE". EACH SYMBOL ENTRY TAKES
   167					FOUR WORDS. THE FIRST WORD IS THE SIXBIT FOR THE NAME OF THE
   168					SYMBOL. THE RIGHT HALF OF THE SECOND WORD IS A POINTER TO
   169					THE NEXT SYMBOL WITH THIS "HASH CODE". THE LEFT HALF OF THE
   170					SECOND WORD IS 0. BIT 0 OF THE THIRD WORD MEANS TO IGNORE
   171					THIS SYMBOL(I'M SURE THIS MEANS SOMETHING BUT I DON'T KNOW
   172					JUST WHAT). BITS 1-17 OF THE THIRD WORD ARE THE LINE NUMBER ON
   173					WHICH THE SYMBOL WAS LAST SEEN AND ARE USED TO COMPUTE RELITIVE
   174					LINE NUMBERS TO BE STORED AS ABOVE. THE RIGHT HALF OF THE
   175					THIRD WORD IS A POINTER TO THE "LINE HEADER" FOR THIS SYMBOL.
   176						THE FOURTH WORD OF THE SYMBOL TABLE ENTRY TAKES
   177					A LITTLE EXPLANATION. THIS WORD IS USED ONLY FOR BLOCK STRUCTURE
   178					PROCESSORS. A BLOCK STRUCTURE PROCESSOR MAY HAVE
   179					SEVERAL SYMBOLS WITH THE SAME NAME BUT OCCURING IN DIFFERENT
   180					BLOCKS. THUS A BLOCK STRUCTURE PROCESSOR USUALLY EMITS A
   181					UNIQUE NUMBER TO INDICATE THE SYMBOL INSTEAD OF THE SYMBOL ITSELF.
   182					THE SYMBOL NUMBER AND NAME/BLOCK ARE THEN LATER EQUATED. THE
   183					PROCESSOR MAY AT SOME TIME FIND THAT TWO SYMBOLS WHICH IT
   184					THOUGHT WERE DIFFERENT ARE REALLY THE SAME. THIS REQUIRES
   185					THAT THE LISTS OF LINE NUMBERS BE COMBINED. IT IS ASSUMED
   186					THAT ALL THE LINE NUMBERS IN ONE LIST COME BEFORE ALL THE
   187					LINE NUMBERS IN THE OTHER LIST. (THIS IS ALWAYS TRUE IN PRACTICE)
   188					THE FOURTH WORD OF THE SYMBOL TABLE IS USED TO HOLD POINTERS
   189					TO THE "LINE HEADERS" FOR THE LISTS OF LINE NUMBERS WHICH HAVE BEEN
   190					COMBINED IN THIS WAY. THE POINTER IN THE THIRD WORD IS ALWAYS
   191					TO THE LIST WITH THE LARGEST LINE NUMBERS. EACH SEPERATE
   192					LIST STARTS WITH RELITIVE LINE NUMBER 0. THE LEFT HALF
   193					OF THE FOURTH WORD POINTES TO A TWO WORD BLOCK WHOSE
   194					FIRST WORD HAS A POINTER TO A "LINE HEADER" IN ITS RIGHT HALF
   195					AND A POINTER TO A SIMILAR TWO WORD BLOCK IN ITS LEFT HALF.
   196					THE SECOND WORD IS UNUSED. THE FIRST "LINE HEADER" HAS THE
   197					SMALLEST LINE NUMBERS, THE SECOND THE NEXT SMALLEST, ETC.
   198					THE RIGHT HALF OF THE FOURTH WORD POINTS TO THE LAST OF THESE
   199					TWO WORD BLOCKS TO MAKE ADDING MORE THE THE LIST EASIER.
   200					WHEN THE DEFINITION OF THE SYMBOL/BLOCK NAME IS FINALLY SEEN
   201					THE RIGHT HALF OF THE FOURTH WORD IS CHANGED TO A POINTER TO
   202					THE BLOCK END ENTRY FRO THAT BLOCK(SEE BELOW). IT IS ASSUMED
   203					THAT NO MORE ADDITIONS TO THE LINE NUMBER LIST FOR A GIVEN
   204					SYMBOL WILL BE MADE AFTER ITS NAME IS DEFINED.
   205						IN A MACRO PROGRAM, THE SYMBOL USED IS THE REAL SYMBOL
   206					INSTEAD OF A NUMBER REPRESENTING IT. THUS COMBINATION AND
   207					DEFINITION NEVER HAPPEN AND THE FOURTH WORD IS NOT USED.
   208
   209
CROSS (OR CREF) - VERSION 14.3-37.0	MACRO %53B(1156)-1 17:40 25-Feb-88 Page 5
CROSS	MAC	15-Sep-76 01:35		CROSS REFERENCE GENERATION PROGRAM -AUG 21,1975

   210						THE REMAINING PIECE OF LIST STRUCTURE IS THE BLOCK TABLE
   211					WHICH OCCURS ONLY FOR BLOCK STRUCTURE PROCESSORS. THE VARIABLE
   212					BLKST HAS A POINTER TO THE BLOCK TABLE. EACH ENTRY HAS
   213					FOUR WORDS. THE FIRST WORD IS THE SIXBIT FOR THE BLOCK NAME.
   214					THE RIGHT HALF OF THE SECOND WORD IS A POINTER TO THE NEXT ENTRY.
   215					THE LEFT HALF OF THE SECOND WORD IS A LEVEL NUMBER.
   216					THIS IS JUST THE DEPTH OF THIS BLOCK IN THE BLOCK STRUCTURE.
   217					THE OUTER MOST BLOCK IS LEVEL 0, NEXT INNER LEVEL 1 ETC.
   218					THE RIGHT HALF OF THE THIRD WORD IS THE LINE NUMBER ON WHICH
   219					THE START OR END OF THE BLOCK OCCURED. THIS BLOCK TABLE HAS
   220					ONE ENTRY FOR THE START OF EACH BLOCK AND ONE FOR THE END OF
   221					EACH BLOCK. THE ENTRIES ARE IN THE ORDER IN WHICH BEGINING
   222					OF BLOCK AND END OF BLOCK ARE SEEN BY THE PROCESSOR. THE
   223					LEFT HALF OF THE THIRD WORD IS A 0 IF THIS IS A START OF A BLOCK
   224					AND 1 IF THIS IS THE END OF A BLOCK. THE FOURTH WORD IS NOT
   225					USED.
   226						NOTE THAT BLOCKS ARE ALWAYS A MULTIPLE OF TWO WORDS LONG.
   227					THIS IS DONE SO THAT THE SIX BIT BYTES FOR THE LINE
   228					NUMBERS ALWAYS START WITH AN EVEN WORD *
   229
CROSS (OR CREF) - VERSION 14.3-37.0	MACRO %53B(1156)-1 17:40 25-Feb-88 Page 6
CROSS	MAC	15-Sep-76 01:35		CROSS REFERENCE GENERATION PROGRAM -AUG 21,1975

   230
   231					MLON
   232
   233	000000'	634 16 0 00 000016 	CREF:	TDZA IO,IO		;START HERE FROM (JOBSA)
   234	000001'	205 16 0 00 000100 		MOVSI IO,IORPG		;START HERE FROM (JOBSA)+1
   235	000002'	047 00 0 00 000000 		RESET
   236	000003'	200 17 0 00 002424'		MOVE P,[IOWD PDL,PPSET]	;INIT PUSH DOWN LIST
   237
   238					IFN TEMPC,<
   239	000004'	402 00 0 00 002636'		SETZM TMPFLG		;ZERO TMPCOR FLAG
   240	000005'	607 16 0 00 000100 		TLNN IO,IORPG		;IS A CCL TYPE CALL?
   241	000006'	254 00 0 00 000033'		JRST TMPEND		;NO
   242	000007'	550 00 0 00 000000*		HRRZ AC0,JOBFF		;GET START OF BUFFER AREA
   243	000010'	505 00 0 00 777600 		HRLI AC0,-200		;-LENGTH IN LH FOR TMPCOR IOWD
   244	000011'	202 00 0 00 002662'		MOVEM AC0,TMPFIL+1	;STORE IT IN TMPCOR IOWD
   245	000012'	370 00 0 00 002662'		SOS TMPFIL+1		;MAKE IT CONFORM TO IOWD FORMAT
   246	000013'	542 00 0 00 002645'		HRRM AC0,CTIBUF+1	;SET UP DUMMY BYTE POINTER
   247	000014'	205 01 0 00 436245 		MOVSI TEMP,(SIXBIT /CRE/)	;SETUP 2 WORD BLOCK FOR TMPCOR UUO
   248	000015'	202 01 0 00 002661'		MOVEM TEMP,TMPFIL
   249	000016'	200 01 0 00 002425'		MOVE TEMP,[XWD 1,TMPFIL]	;SET UP FOR READ FROM CORE
   250	000017'	047 01 0 00 000044 		CALLI TEMP,TMPCOR	;READ AND DELETE FILE "CRE"
   251	000020'	254 00 0 00 000033'		JRST TMPEND		;FILE NOT THERE, TRY THE DISK
   252	000021'	270 00 0 00 000001 		ADD AC0,TEMP		;GET END OF BUFFER
   253	000022'	202 00 0 00 000007*		MOVEM AC0,JOBFF		;DUMMY UP JOBFF
   254	000023'	202 00 0 00 002634'		MOVEM AC0,SVJFF		;SAVE NEW JOBFF
   255	000024'	221 01 0 00 000005 		IMULI TEMP,5		;CALCULATE THE CHARACTER COUNT
   256	000025'	271 01 0 00 000001 		ADDI TEMP,1	;TAKE CARE OF SOSG PROBLEM
   257	000026'	202 01 0 00 002646'		MOVEM TEMP,CTIBUF+2	;DUMMY UP CHARACTER COUNT IN HEADER
   258	000027'	201 01 0 00 440700 		MOVEI TEMP,440700	;SET UP REST OF BYTE POINTER
   259	000030'	506 01 0 00 002645'		HRLM TEMP,CTIBUF+1	;HEADER NOW COMPLETE
   260	000031'	476 00 0 00 002636'		SETOM TMPFLG
   261	000032'	254 00 0 00 000065'		JRST GORPGO		;RETURN TO MAIN FLOW
   262	000033'				TMPEND:>
   263	000033'	201 01 0 00 000001 		MOVEI TEMP,AL		;OPEN FILE IN ASCII LINE MODE
   264	000034'	205 02 0 00 646471 		MOVSI TEMP+1,(SIXBIT /TTY/)
   265	000035'	603 16 0 00 000100 		TLNE IO,IORPG		;USING CCL MODE?
   266	000036'	205 02 0 00 446353 		MOVSI TEMP+1,(SIXBIT /DSK/)	;YES
   267	000037'	202 02 0 00 002635'		MOVEM TEMP+1,CTIDEV	;SAVE DEVICE NAME
   268	000040'	201 03 0 00 002644'		MOVEI TEMP+2,CTIBUF	;SET UP INPUT BUFFER HEADER ADDRESS
   269	000041'	050 01 0 00 000001 		OPEN CTLI,TEMP		;OPEN INPUT COMMAND FILE
   270	000042'	254 00 0 00 000000'		 JRST CREF		;OPEN FAILURE, START OVER
   271	000043'	064 01 0 00 000001 		INBUF CTLI,1		;SET UP 1 INPUT BUFFER
   272	000044'	550 00 0 00 000022*		HRRZ JOBFF
   273	000045'	202 00 0 00 002634'		MOVEM SVJFF		;SAVE JOBFF
   274	000046'	607 16 0 00 000100 		TLNN IO,IORPG
   275	000047'	254 00 0 00 000065'		JRST RETRPG		;NOT IN CCL MODE
   276
   277					;THE FOLLOWING CODE LOOKS UP A FILE -DSK:QQCREF.RPG
   278					;AND TRIES TO INITIALIZE IT. IF EVERYTHING WORKS, THAT FILE IS
   279					;USED FOR THE COMMAND DATA TO CREF. IF SOMETHING GOES WRONG,
   280					;A MESSAGE IS OUTPUT AND CREF EXITS BACK TO THE EXEC.
   281
   282	000050'	201 00 0 00 000003 		MOVEI AC0,3		;JOB # IS 3 CHARS LONG
   283	000051'	047 01 0 00 000030 		CALLI TEMP,30		;GET JOB #
   284	000052'	231 01 0 00 000012 	CREF1:	IDIVI TEMP,12
CROSS (OR CREF) - VERSION 14.3-37.0	MACRO %53B(1156)-1 17:40 25-Feb-88 Page 6-1
CROSS	MAC	15-Sep-76 01:35		CROSS REFERENCE GENERATION PROGRAM -AUG 21,1975

   285	000053'	271 02 0 00 000020 		ADDI TEMP+1,"0"-40	;CHANGE REMAINDER TO SIXBIT DIGIT
   286	000054'	246 02 0 00 777772 		LSHC TEMP+1,-6		;SHOVE DIGITS INTO TEMP+2
   287	000055'	367 00 0 00 000052'		SOJG AC0,CREF1			;3 DIGITS YET?
   288	000056'	541 03 0 00 436245 		HRRI TEMP+2,(SIXBIT /CRE/)
   289	000057'	202 03 0 00 002655'		MOVEM TEMP+2,CTIDIR		;SET UP ###CRE
   290	000060'	205 01 0 00 645560 		MOVSI TEMP,(SIXBIT /TMP/)
   291	000061'	202 01 0 00 002656'		MOVEM TEMP,CTIDIR+1		;SET UP EXTENSION
   292	000062'	402 00 0 00 002660'		SETZM CTIDIR+3			;CLEAR PROJ,PROG
   293	000063'	076 01 0 00 002655'		LOOKUP CTLI,CTIDIR		;DO LOOKUP ON COMMAND FILE
   294						JRST	[OUTSTR [ASCIZ/No cross reference files waiting to be processed/]
   295	000064'	254 00 0 00 002440'			JRST LEAVE]
   296
   297					; .TMP FILE OPEN (TMPCOR OR DSK:) SO SAY WE ARE PROCESSING
   298	000065'				GORPGO:
   299
CROSS (OR CREF) - VERSION 14.3-MACRO %53B(1156)-1 17:40 25-Feb-88 Page 7
CROSS	MAC	15-Sep-76 01:35		CROSS REFERENCE GENERATION PROGRAM -AUG 21,1975

   300	000065'	661 16 0 00 140004 	RETRPG:	TLO IO,IOPAGE!IOSYM!IOMAC
   301	000066'	550 00 0 00 002634'		HRRZ 0,SVJFF		;GET THE SAVED JOBFF
   302	000067'	202 00 0 00 000044*		MOVEM 0,JOBFF		;RESTORE JOBFF
   303	000070'	332 00 0 00 000000*		SKIPE JOBDDT
   304	000071'	254 00 0 00 000074'		JRST .+3	;NO CORE UUO WHEN USING DDT
   305	000072'	047 00 0 00 000011 		CORE 0,			;SHRINK CORE
   306	000073'	254 00 0 00 000000'		 JRST CREF		;CORE FAILURE
   307	000074'	402 00 0 00 003301'		SETZM STCLR
   308	000075'	200 00 0 00 002442'		MOVE 0,[XWD STCLR,STCLR+1]
   309	000076'	251 00 0 00 004110'		BLT 0,ENDCLR		;CLEAR OUT VARIABLE AREA
   310
   311	000077'	200 17 0 00 002424'		MOVE P,[IOWD PDL,PPSET]	;INIT PUSH DOWN LIST POINTER
   312	000100'	523 00 0 00 003424'		HLLOS UPPLIM		;?
   313
   314	000101'	603 16 0 00 000100 		TLNE IO,IORPG		;IN CCL MODE?
   315	000102'	254 00 0 00 000106'		JRST	LSTSET		;YES, NO *
   316	000103'	260 17 0 00 002147'		PUSHJ P,CRLF	;NO
   317	000104'	201 07 0 00 000052 		MOVEI C,"*"
   318	000105'	260 17 0 00 002152'		PUSHJ P,TYO	;OUTPUT *
   319
CROSS (OR CREF) - VERSION 14.3-37.0	MACRO %53B(1156)-1 17:40 25-Feb-88 Page 8
CROSS	MAC	15-Sep-76 01:35		CROSS REFERENCE GENERATION PROGRAM -AUG 21,1975

   320					;THIS CODE IS USED TO SET UP  SOURCE AND
   321					;DESTINATION DEVICES, DO MAGTAPE SPACING COMMANDS, ETC.
   322
   323	000106'	200 01 0 00 002443'	LSTSET:	MOVE	ACDEV,[SIXBIT'CROSS']	;TRY CROSS FIRST
   324	000107'	041 03 0 00 000000 		INIT	LST,0
   325	000110'	43 62 57 63 63 00 		SIXBIT/CROSS/
   326	000111'	000 00 0 00 000000 		Z
   327	000112'	205 01 0 00 446353 		MOVSI	ACDEV,(SIXBIT /DSK/)	;FALED, ASSUME DSK
   328	000113'	071 03 0 00 000000 		RELEASE	LST,
   329	000114'	202 01 0 00 003417'		MOVEM	ACDEV,LSTDEV		;DEFAULT LIST DEVICE IS DSK:
   330	000115'	260 17 0 00 001703'		PUSHJ	P,NAME1	;GET NEXT DEVICE
   331	000116'	302 07 0 00 000137 		CAIE	C,"_"		;LISTING DEVICE SPECIFIED?
   332	000117'	254 00 0 00 000124'		JRST	LSTS2		;NO
   333	000120'	332 00 0 00 000001 		SKIPE	ACDEV
   334	000121'	202 01 0 00 003417'		MOVEM	ACDEV,LSTDEV	;SAVE DEVICE NAME
   335	000122'	202 02 0 00 003312'		MOVEM	ACFILE,LSTDIR	;STORE FILE NAME
   336	000123'	202 06 0 00 003313'		MOVEM	ACEXT,LSTDIR+1
   337
   338	000124'	201 12 0 00 000001 	LSTS2:	MOVEI FLAG,AL		;INIT DEVICE IN ASCII LINE MODE
   339	000125'	200 13 0 00 003417'		MOVE FLAG+1,LSTDEV	;GET DEVICE NAME
   340	000126'	205 14 0 00 002652'		MOVSI FLAG+2,LSTBUF	;BUFFER HEADER ADDRESS
   341	000127'	050 03 0 00 000012 		OPEN LST,FLAG		;TRY TO INIT DEVICE
   342	000130'	260 17 0 00 002412'		PUSHJ	P,WATLPT	;;CHECK LISTING DEVICE
   343	000131'	065 03 0 00 000002 		OUTBUF LST,2		;SET UP A TWO RING BUFFER
   344
   345	000132'	302 07 0 00 000137 		CAIE	C,"_"		;LISTING DEVICE SPECIFIED?
   346	000133'	254 00 0 00 000153'		JRST	INSET1		;NO
   347	000134'	047 01 0 00 000004 		DEVCHR ACDEV,		;GET OUTPUT DEVICE CHARACTERISTICS
   348	000135'	603 01 0 00 000010 		TLNE	ACDEV,10	;IS IT A TTY?
   349	000136'	661 16 0 00 004000 		TLO	IO,IOTTY	;YES, SET TTY FLAG
   350	000137'	623 06 0 00 001000 		TLZE	TIO,TIORW	;REWIND REQUESTED?
   351	000140'	072 03 0 00 000001 		MTAPE	LST,1		;YES
   352	000141'	325 10 0 00 000147'		JUMPGE	CS,LSTSE3
   353	000142'	072 03 0 00 000017 		MTAPE	LST,17		;BACKSPACE MTA
   354	000143'	341 10 0 00 000142'		AOJL	CS,.-1		;IF COUNT IS NEG., BACKSPACE AGAIN
   355	000144'	072 03 0 00 000000 		WAIT	LST,		;WAIT FOR TAPE TO STOP SO LOAD POINT CAN BE SENSED
   356	000145'	061 03 0 00 004000 		STATO	LST,1B24	;SKIP IF AT LOAD POINT-
   357									; THIS PUTS TAPE ON CORRECT SIDE OF EOF
   358	000146'	072 03 0 00 000016 		MTAPE	LST,16		;SPACE FORWARD 1 FILE
   359	000147'	367 10 0 00 000146'	LSTSE3:	SOJG	CS,.-1		;LOOP UNTIL POS. COUNT RUNS OUT
   360
   361	000150'	603 06 0 00 020000 		TLNE	TIO,TIOCLD	;DIRECTORY CLEAR REQUESTED?
   362	000151'	047 03 0 00 000013 		UTPCLR	LST,		;YES, CLEAR IT
   363	000152'	260 17 0 00 001703'	INSET:	PUSHJ P,NAME1
   364	000153'	261 17 0 00 002444'	INSET1:	PUSH P,[SIXBIT /DSK/]
   365	000154'	262 17 0 00 003301'		POP P,INDEV
   366	000155'	260 17 0 00 002063'		PUSHJ P,INSETF
   367	000156'	332 00 0 00 003312'		SKIPE LSTDIR	;WAS A NAME GIVEN
   368	000157'	254 00 0 00 000164'		JRST NOASNM	;YES, DO NOT USE DEFALT
   369	000160'	261 17 0 00 003306'		PUSH P,INDIR	;GET INPUT NAME
   370	000161'	262 17 0 00 003312'		POP P,LSTDIR
   371	000162'	205 13 0 00 546364 		MOVSI FREE,(SIXBIT /LST/)
   372	000163'	202 13 0 00 003313'		MOVEM FREE,LSTDIR+1
   373	000164'	077 03 0 00 003312'	NOASNM:	ENTER LST,LSTDIR
   374	000165'	254 00 0 00 002323'		JRST ERRENT
CROSS (OR CREF) - VERSION 14.3-37.0	MACRO %53B(1156)-1 17:40 25-Feb-88 Page 8-1
CROSS	MAC	15-Sep-76 01:35		CROSS REFERENCE GENERATION PROGRAM -AUG 21,1975

   375	000166'	606 16 0 00 000004 		TRNN IO,IOSOUT	;IF SPECIAL REQUEST
   376	000167'	254 00 0 00 000205'		JRST NOSPO
   377	000170'	041 04 0 00 000014 		INIT SOP,14
   378	000171'	44 63 53 00 00 00 		SIXBIT /DSK/
   379	000172'	003276'	000000			XWD SOBUF,0
   380	000173'	254 00 0 00 000203'		JRST NOSOUT
   381	000174'	402 00 0 00 003275'		SETZM SONAM+3
   382	000175'	402 00 0 00 003274'		SETZM SONAM+2
   383	000176'	205 13 0 00 636764 		MOVSI FREE,(SIXBIT /SWT/)	;MAKE IT CRF
   384	000177'	202 13 0 00 003273'		MOVEM FREE,SONAM+1
   385	000200'	200 13 0 00 003306'		MOVE FREE,INDIR		;STILL LEFT THERE
   386	000201'	202 13 0 00 003272'		MOVEM FREE,SONAM
   387	000202'	077 04 0 00 003272'		ENTER SOP,SONAM
   388	000203'	624 16 0 00 000004 	NOSOUT:	TRZA IO,IOSOUT	;GIVE UP
   389	000204'	065 04 0 00 000002 		OUTBUF SOP,2
   390	000205'	607 16 0 00 000100 	NOSPO:	TLNN	IO,IORPG	;IN CCL MODE?
   391	000206'	254 00 0 00 000226'		JRST	NOSPO1		;NO, DONT TYPE NAME OUT
   392					;IN RPG MODE, TYPE OUT NAME OF OUTPUT FILE BEING GENERATED
   393					;USES AUXCAL SO THAT IF USER ^C/ESC AND DETACHES, CROSS
   394					;WILL CONTINUE TO RUN  ...  (REMEMBER, AUXCAL IS A NO-OP
   395					;IF CONTROLLING TERMINAL SPECIFIED AND TERMINAL IS DETACHED)
   396	000207'	561 01 0 00 000005 		HRROI	TEMP,5		;AUXCAL FCN:5 - OUTPTR
   397	000210'	200 02 0 00 002447'		MOVE	TEMP1,[POINT 7,[ASCIZ/CROSS: /]]
   398	000211'	042 01 0 00 000002 		AUXCAL	TEMP,TEMP1	;TYPE CROSS:
   399	000212'	255 00 0 00 000000 		 JFCL
   400	000213'	201 01 0 00 000006 		MOVEI	TEMP,6		;NUMBER OF CHARS(MAX) IN NAME
   401	000214'	200 02 0 00 002450'		MOVE	TEMP1,[POINT 6,LSTDIR]	;POINTER TO NAME
   402	000215'	134 07 0 00 000002 	NOSPLP:	ILDB	C,TEMP1		;GET CHAR FROM NAME
   403	000216'	322 07 0 00 000222'		JUMPE	C,NOSPO0	;DONE IF 0 (SPACE)
   404	000217'	271 07 0 00 000040 		ADDI	C,40		;CONVERT TO ASCII
   405	000220'	260 17 0 00 002304'		PUSHJ	P,OUTNWT	;OUTPUT CHARACTER
   406	000221'	367 01 0 00 000215'		SOJG	TEMP,NOSPLP	;LOOP OUTPUTING CHARACTERS
   407	000222'	201 07 0 00 000015 	NOSPO0:	MOVEI	C,15		;C.R.
   408	000223'	260 17 0 00 002304'		PUSHJ	P,OUTNWT
   409	000224'	201 07 0 00 000012 		MOVEI	C,12		;L.F.
   410	000225'	260 17 0 00 002304'		PUSHJ	P,OUTNWT
   411	000226'				NOSPO1:	;OUT OF LOOP
   412
CROSS (OR CREF) - VERSION 14.3-37.0	MACRO %53B(1156)-1 17:40 25-Feb-88 Page 9
CROSS	MAC	15-Sep-76 01:35		CROSS REFERENCE GENERATION PROGRAM -AUG 21,1975

   413	000226'	201 13 0 00 003426'		MOVEI FREE,BLKST-1	;SET UP THINGS FOR COMBG
   414	000227'	202 13 0 00 004110'		MOVEM FREE,BLKND
   415
   416	000230'	550 13 0 00 000067*	RECYCL:	HRRZ	FREE,JOBFF	;RETURN FOR MULTIPLE F4 PROGS
   417	000231'	271 13 0 00 000001 		ADDI	FREE,1
   418	000232'	620 13 0 00 000001 		TRZ	FREE,1		;SET UP BYTE TABLE ADR ON EVEN LOCATION
   419
   420	000233'	550 15 0 00 000000*		HRRZ	TOP,JOBREL	;SET UP HIGH ADR OF SYMBOL TABLE
   421	000234'	332 00 0 00 000070*		SKIPE	JOBDDT
   422	000235'	550 15 0 00 000000*		HRRZ	TOP,JOBSYM	;SAVE DDT'S SYMBOL TABLE WHEN IN USE
   423	000236'	315 15 0 00 000230*		CAMGE TOP,JOBFF
   424	000237'	334 15 0 00 000233*		SKIPA TOP,JOBREL	;USE JOBREL IF DDT AND MOVED
   425	000240'	275 15 0 00 000001 		SUBI TOP,1	;JUST IN CASE
   426
   427	000241'	202 17 0 00 004114'		MOVEM P,PPSAV#	;SAVE PDL FOR ERROR RECOVERY
   428	000242'	201 11 0 00 000001 		MOVEI	LINE,1	;INITIALIZE LINE COUNTER
   429	000243'	202 11 0 00 002640'		MOVEM LINE,LINEX
   430	000244'	260 17 0 00 002240'		PUSHJ P,READ	;TEST FIRST CHARACTER
   431	000245'	602 16 0 00 000002 		TRNE IO,IOJLST	;JUST LIST?
   432	000246'	254 00 0 00 000252'		JRST M1
   433	000247'	302 07 0 00 000037 		CAIE C,%EOF	;PROGRAM BREAK?
   434	000250'	254 00 0 00 000257'		JRST M2A	;NO, PROCESS
   435	000251'	254 00 0 00 000254'		JRST M2		;YES, BYPASS
   436
   437
CROSS (OR CREF) - VERSION 14.3-37.0	MACRO %53B(1156)-1 17:40 25-Feb-88 Page 10
CROSS	MAC	15-Sep-76 01:35		CROSS REFERENCE GENERATION PROGRAM -AUG 21,1975

   438					MLON
   439	000252'	607 16 0 00 000001 	M1:	TLNN	IO,IOLST
   440	000253'	260 17 0 00 001565'		PUSHJ	P,WRITE
   441	000254'	260 17 0 00 002240'	M2:	PUSHJ	P,READ
   442	000255'	602 16 0 00 000002 		TRNE IO,IOJLST	;JUST LIST IT
   443	000256'	254 00 0 00 000252'		JRST M1
   444	000257'	306 07 0 00 000177 	M2A:	CAIN C,177
   445	000260'	254 00 0 00 000722'		JRST FAILM
   446	000261'	306 07 0 00 000012 		CAIN C,12
   447	000262'	254 00 0 00 000252'		JRST M1
   448	000263'	306 07 0 00 000015 		CAIN C,15
   449	000264'	254 00 0 00 000365'		JRST FCKLF
   450	000265'	307 07 0 00 000037 		CAIG C,%EOF
   451	000266'	305 07 0 00 000033 		CAIGE C,%OP
   452	000267'	334 00 0 00 000000 		SKIPA
   453	000270'	254 00 0 00 000301'		JRST M2C
   454	000271'	623 16 0 00 000040 		TLZE IO,IOENDL
   455	000272'	603 16 0 00 000001 		TLNE IO,IOLST
   456	000273'	254 00 0 00 000252'		JRST M1
   457	000274'	261 17 0 00 000007 		PUSH P,C
   458	000275'	201 07 0 00 000011 		MOVEI C,11
   459	000276'	260 17 0 00 001565'		PUSHJ P,WRITE
   460	000277'	262 17 0 00 000007 		POP P,C
   461	000300'	254 00 0 00 000252'		JRST M1
   462
   463	000301'	603 16 0 00 000010 	M2C:	TLNE IO,IOFAIL		;IF "NEW STYLE" DATA SEEN (IOFAIL=1),IGNORE OLD
   464	000302'	254 00 0 00 000252'		JRST M1			;IGNORE "OLD STYLE" CREF DATA
   465	000303'	621 16 0 00 000040 		TLZ IO,IOENDL
   466	000304'	661 16 0 00 002000 		TLO IO,IOTB2
   467	000305'	256 00 0 07 000325'		XCT	MTAB-%OP(C)	;DO SOMETHING (USUALLY SET BITS) WITH CONTROL CHAR
   468	000306'	254 00 0 00 000323'		JRST	M3		;BITS WERE SET (EITHER IOOP,IOMAC, OR IOSYM)
   469
   470	000307'	607 16 0 00 000001 	M2B:	TLNN	IO,IOLST
   471	000310'	260 17 0 00 000426'		PUSHJ	P,CNVRT	;IF MAKING LISTING, CONVERT (LINE) TO TEXT
   472	000311'	603 16 0 00 000200 		TLNE IO,IOTABS
   473						JRST	[MOVEI C,11
   474							TLNN IO,IOLST
   475							PUSHJ P,WRITE
   476	000312'	254 00 0 00 002451'			JRST .+1]
   477	000313'	200 01 0 00 002637'	M2BINC:	MOVE	TEMP,CHOLD
   478	000314'	302 01 0 00 000105 		CAIE	TEMP,105
   479	000315'	350 00 0 00 002640'		AOS	LINEX	;INCREMENT LINE NUMBER
   480	000316'	302 01 0 00 000107 		CAIE	TEMP,107
   481	000317'	306 01 0 00 000105 		CAIN	TEMP,105
   482	000320'	254 00 0 00 000322'		JRST .+2
   483	000321'	200 11 0 00 002640'		MOVE	LINE,LINEX
   484	000322'	254 00 0 00 000254'		JRST	M2
   485
   486	000323'	201 00 0 00 000000 	M3:	MOVEI	AC0,0
   487	000324'	260 17 0 00 002240'	M4:	PUSHJ	P,READ
   488	000325'	305 07 0 00 000040 		CAIGE C,40
   489	000326'	254 00 0 00 000334'		JRST M5A	;NOT SIXBIT
   490	000327'	242 00 0 00 000006 		LSH AC0,6
   491	000330'	275 07 0 00 000040 		SUBI C,40
   492	000331'	405 07 0 00 000077 		ANDI C,77	;AMKE SURE
CROSS (OR CREF) - VERSION 14.3-37.0	MACRO %53B(1156)-1 17:40 25-Feb-88 Page 10-1
CROSS	MAC	15-Sep-76 01:35		CROSS REFERENCE GENERATION PROGRAM -AUG 21,1975

   493	000332'	434 00 0 00 000007 		IOR AC0,C
   494	000333'	254 00 0 00 000324'		JRST	M4
   495
   496	000334'	260 17 0 00 000337'	M5A:	PUSHJ P,M5
   497	000335'	254 00 0 00 000254'		JRST M2
   498	000336'	242 00 0 00 000006 		LSH AC0,6
   499	000337'	607 00 0 00 770000 	M5:	TLNN AC0,770000	;ANY BITS IN HIGH CHR?
   500	000340'	254 00 0 00 000336'		JRST .-2	;JUSTIFY
   501	000341'	326 00 0 00 000347'		JUMPN	AC0,M6
   502	000342'	201 03 0 00 002455'		MOVEI	RC,[SIXBIT /(OM) Improper data code@/]
   503	000343'	200 17 0 00 004114'	ERROR:	MOVE P,PPSAV	;SET TO RECOVER
   504	000344'	260 17 0 00 002402'		PUSHJ P,PNTMSG
   505	000345'	260 17 0 00 002147'		PUSHJ P,CRLF
   506	000346'	254 00 0 00 000254'		JRST M2		;AND DO SO
   507
   508	000347'	612 16 0 00 000004 	M6:	TDNE	IO,SX
   509	000350'	603 16 0 00 000002 		TLNE	IO,IONCRF
   510	000351'	263 17 0 00 000000 		POPJ P,
   511
   512	000352'	311 11 0 00 003423'		CAML	LINE,LOWLIM
   513	000353'	313 11 0 00 003424'		CAMLE	LINE,UPPLIM
   514	000354'	634 12 0 00 000012 		TDZA	FLAG,FLAG
   515	000355'	205 12 0 00 400000 		MOVSI	FLAG,(1B0)
   516	000356'	254 00 0 00 001330'		JRST SRCH
   517	000357'	263 17 0 00 000000 		POPJ P,
   518
   519	000360'	205 04 0 00 200000 	MTAB:	MOVSI	SX,IOOP
   520	000361'	205 04 0 00 100000 		MOVSI	SX,IOMAC
   521	000362'	334 07 0 00 000011 		SKIPA	C,LINE
   522	000363'	205 04 0 00 040000 		MOVSI	SX,IOSYM
   523	000364'	254 00 0 00 000370'		JRST R0A		;BREAK BETWEEN PROGRAMS
   524
   525	000365'	603 16 0 00 002200 	FCKLF:	TLNE IO,IOTABS!IOTB2
   526	000366'	661 16 0 00 000040 		TLO IO,IOENDL
   527	000367'	254 00 0 00 000252'		JRST M1
   528
   529	000370'	602 16 0 00 000001 	R0A:	TRNE IO,IOCMB	;IF COMBINING FORTRAN PROGRAMS
   530	000371'	254 00 0 00 000254'		JRST M2		;JUST CONTINUE
   531								;ELSE FALL INTO R0
   532
CROSS (OR CREF) - VERSION 14.3-37.0	MACRO %53B(1156)-1 17:40 25-Feb-88 Page 11
CROSS	MAC	15-Sep-76 01:35		CROSS REFERENCE GENERATION PROGRAM -AUG 21,1975

   533	000372'				R0:
   534	000372'	332 05 0 00 003427'		SKIPE BYTEX,BLKST	;CHECK FOR FAIL BLOCK STRUCTURE
   535	000373'	260 17 0 00 001257'		PUSHJ P,BLKPRN
   536	000374'	602 16 0 00 000004 		TRNE IO,IOSOUT
   537	000375'	260 17 0 00 000462'		PUSHJ P,SETPNM	;SET UP PROGRAM NAME IF NEEDED
   538	000376'	607 16 0 00 040000 		TLNN IO,IOSYM
   539	000377'	254 00 0 00 000405'		JRST NOSYM
   540	000400'	201 05 0 00 003576'		MOVEI BYTEX,SYMTBL
   541	000401'	260 17 0 00 000512'		PUSHJ P,SORT
   542	000402'	201 10 0 00 000003 		MOVEI CS,3
   543	000403'	201 04 0 00 002461'		MOVEI SX,[ASCIZ*Symbol cross reference*]
   544	000404'	260 17 0 00 000600'		PUSHJ P,OUTP
   545	000405'	607 16 0 00 100000 	NOSYM:	TLNN IO,IOMAC
   546	000406'	254 00 0 00 000414'		JRST NOMAC
   547	000407'	201 05 0 00 003743'		MOVEI BYTEX,MACTBL
   548	000410'	260 17 0 00 000512'		PUSHJ P,SORT
   549	000411'	201 10 0 00 000002 		MOVEI CS,2
   550	000412'	201 04 0 00 002466'		MOVEI SX,[ASCIZ*Macro/Opdef cross reference*]
   551	000413'	260 17 0 00 000600'		PUSHJ P,OUTP
   552	000414'	607 16 0 00 200000 	NOMAC:	TLNN IO,IOOP
   553	000415'	254 00 0 00 000423'		JRST FINI0
   554	000416'	201 05 0 00 003431'		MOVEI BYTEX,OPTBL
   555	000417'	260 17 0 00 000512'		PUSHJ P,SORT
   556	000420'	201 10 0 00 000001 		MOVEI CS,1
   557	000421'	201 04 0 00 002474'		MOVEI SX,[ASCIZ*Opcode cross reference*]
   558	000422'	260 17 0 00 000600'		PUSHJ P,OUTP
   559	000423'	201 10 0 00 000000 	FINI0:	MOVEI CS,0
   560	000424'	260 17 0 00 000454'		PUSHJ P,OUTWD
   561	000425'	254 00 0 00 001634'		JRST FINIS
   562
   563	000426'	201 01 0 00 000006 	CNVRT:	MOVEI	TEMP,6	;OUTPUT SPACES FOR LEADING ZEROS
   564	000427'	201 10 0 00 777760 	CNVR1:	MOVEI C+1," "-"0"
   565	000430'	332 00 0 00 000007 		SKIPE C
   566	000431'	231 07 0 00 000012 		IDIVI C,12
   567	000432'	506 10 0 17 000000 		HRLM C+1,(P)
   568	000433'	377 00 0 00 000001 		SOSG TEMP
   569	000434'	332 00 0 00 000007 		SKIPE C
   570	000435'	260 17 0 00 000427'		PUSHJ P,CNVR1
   571	000436'	554 07 0 17 000000 		HLRZ C,(P)
   572	000437'	201 07 0 07 000060 		MOVEI C,"0"(C)
   573	000440'	254 00 0 00 001565'		JRST WRITE
   574
   575	000441'	621 16 0 00 001000 	OUTASC:	TLZ IO,IONLZ	;READY TO SUPRESS LEADING 0'S
   576	000442'	201 07 0 00 000000 	OUTAS1:	MOVEI C,0
   577	000443'	246 07 0 00 000006 		LSHC C,6
   578	000444'	271 07 0 00 000040 		ADDI C,40
   579	000445'	306 07 0 00 000060 		CAIN C,"0"
   580	000446'	603 16 0 00 001000 		TLNE IO,IONLZ
   581	000447'	665 16 0 00 001000 		TLOA IO,IONLZ
   582	000450'	201 07 0 00 000040 		MOVEI C," "
   583	000451'	260 17 0 00 001542'		PUSHJ P,WRITE0
   584	000452'	326 10 0 00 000442'		JUMPN CS,OUTAS1	;ANY MORE TO PRINT?
   585	000453'	263 17 0 00 000000 		POPJ P,	;DONE
   586
   587	000454'	606 16 0 00 000004 	OUTWD:	TRNN IO,IOSOUT
CROSS (OR CREF) - VERSION 14.3-37.0	MACRO %53B(1156)-1 17:40 25-Feb-88 Page 11-1
CROSS	MAC	15-Sep-76 01:35		CROSS REFERENCE GENERATION PROGRAM -AUG 21,1975

   588	000455'	263 17 0 00 000000 		POPJ P,		;SO WE DON'T NEED TO TEST EVERYWHERE
   589	000456'	377 00 0 00 003300'		SOSG SOBUF+2
   590	000457'	067 04 0 00 000000 		OUTPUT SOP,0	;DON'T WORY ABOUT ERRORS
   591	000460'	136 10 0 00 003277'		IDPB CS,SOBUF+1
   592	000461'	263 17 0 00 000000 		POPJ P,
   593
   594	000462'	402 00 0 00 004113'	SETPNM:	SETZM PNAME#
   595	000463'	402 00 0 00 004111'		SETZM HWD#	;FOR HALF WORD OUTPUT LATER
   596	000464'	200 05 0 00 002501'		MOVE BYTEX,[POINT 7,TIBUF]
   597	000465'	200 06 0 00 002502'		MOVE BYTEM,[POINT 6,PNAME]
   598	000466'	134 07 0 00 000005 	CHLP:	ILDB C,BYTEX
   599	000467'	301 07 0 00 000140 		CAIL C,140
   600	000470'	275 07 0 00 000100 		SUBI C,100	;CONVERT CASE?
   601	000471'	307 07 0 00 000132 		CAIG C,"Z"
   602	000472'	305 07 0 00 000060 		CAIGE C,"0"
   603	000473'	254 00 0 00 000500'		JRST CHDOT	;SPECIA LETTERS ALLOWED
   604	000474'	305 07 0 00 000101 		CAIGE C,"A"
   605	000475'	307 07 0 00 000071 		CAIG C,"9"
   606	000476'	254 00 0 00 000505'		JRST CHOK	;ALL OK
   607	000477'	263 17 0 00 000000 		POPJ P,		;MUST BE DONE
   608	000500'	302 07 0 00 000056 	CHDOT:	CAIE C,"."
   609	000501'	306 07 0 00 000045 		CAIN C,"%"
   610	000502'	254 00 0 00 000505'		JRST CHOK
   611	000503'	302 07 0 00 000044 		CAIE C,"$"
   612	000504'	263 17 0 00 000000 		POPJ P,
   613	000505'	275 07 0 00 000040 	CHOK:	SUBI C,40
   614	000506'	136 07 0 00 000006 		IDPB C,BYTEM
   615	000507'	603 06 0 00 770000 		TLNE BYTEM,770000	;OUT OF ROOM?
   616	000510'	254 00 0 00 000466'		JRST CHLP	;MORE
   617	000511'	263 17 0 00 000000 		POPJ P,
   618
CROSS (OR CREF) - VERSION 14.3-37.0	MACRO %53B(1156)-1 17:40 25-Feb-88 Page 12
CROSS	MAC	15-Sep-76 01:35		CROSS REFERENCE GENERATION PROGRAM -AUG 21,1975

   619	000512'	505 05 0 00 777633 	SORT:	HRLI BYTEX,-HASH	;SET UP FOR FIST SORT AOBJN
   620	000513'	201 04 0 00 000000 	L2:	MOVEI SX,0
   621	000514'	250 04 0 05 000000 		EXCH SX,(BYTEX)		;GET FIRST TABLE ENTRY
   622	000515'	322 04 0 00 000543'		JUMPE SX,NXTENT		;NOTHING THERE
   623	000516'	201 07 0 05 777777 	L3:	MOVEI C,-1(BYTEX)	;GET A POINTER FOR LINKING IN
   624	000517'	200 12 0 04 000000 		MOVE FLAG,(SX)
   625	000520'	336 06 0 07 000001 	L1:	SKIPN TX,1(C)
   626	000521'	254 00 0 00 000537'		JRST INSRT	;AT END OF CHAIN SO PUT IT IN
   627	000522'	311 12 0 06 000000 		CAML FLAG,(TX)
   628	000523'	254 00 0 00 000526'		JRST CKEQ	;CHECK ON EQUALITY AND INSERT
   629	000524'	200 07 0 00 000006 	L4:	MOVE C,TX
   630	000525'	254 00 0 00 000520'		JRST L1
   631	000526'	312 12 0 06 000000 	CKEQ:	CAME FLAG,(TX)
   632	000527'	254 00 0 00 000537'		JRST INSRT	;NO THE SAME GO PUT IN
   633	000530'	200 12 0 04 000003 		MOVE FLAG,3(SX)
   634	000531'	200 12 0 12 000000 		MOVE FLAG,(FLAG)
   635	000532'	200 01 0 06 000003 		MOVE TEMP,3(TX)
   636	000533'	311 12 0 01 000000 		CAML FLAG,(TEMP)
   637	000534'	254 00 0 00 000537'		JRST INSRT
   638	000535'	200 12 0 04 000000 		MOVE FLAG,(SX)
   639	000536'	254 00 0 00 000524'		JRST L4
   640	000537'	250 06 0 04 000001 	INSRT:	EXCH TX,1(SX)
   641	000540'	202 04 0 07 000001 		MOVEM SX,1(C)
   642	000541'	332 04 0 00 000006 		SKIPE SX,TX
   643	000542'	254 00 0 00 000516'		JRST L3
   644	000543'	253 05 0 00 000513'	NXTENT:	AOBJN BYTEX,L2
   645
   646	000544'	402 00 0 00 004112'		SETZM LINKL#	;NO PUT ALL SORTED CHAINS TOGETHER
   647	000545'	275 05 0 00 000145 	TRY0:	SUBI BYTEX,HASH
   648	000546'	205 07 0 00 400000 		MOVSI C,400000
   649	000547'	505 05 0 00 777633 		HRLI BYTEX,-HASH
   650	000550'	336 06 0 05 000000 	NXTSY:	SKIPN TX,(BYTEX)
   651	000551'	254 00 0 00 000554'		JRST TRYNXT
   652	000552'	317 07 0 06 000000 		CAMG C,(TX)
   653	000553'	254 00 0 00 000565'		JRST CKEQ2
   654	000554'	253 05 0 00 000550'	TRYNXT:	AOBJN BYTEX,NXTSY
   655	000555'	316 07 0 00 002503'		CAMN C,[1B0]
   656	000556'	263 17 0 00 000000 		POPJ P,
   657	000557'	200 06 0 04 000000 		MOVE TX,(SX)
   658	000560'	200 12 0 00 004112'		MOVE FLAG,LINKL
   659	000561'	250 12 0 06 000001 		EXCH FLAG,1(TX)
   660	000562'	202 12 0 04 000000 		MOVEM FLAG,(SX)
   661	000563'	202 06 0 00 004112'		MOVEM TX,LINKL
   662	000564'	254 00 0 00 000545'		JRST TRY0
   663	000565'	312 07 0 06 000000 	CKEQ2:	CAME C,(TX)
   664	000566'	254 00 0 00 000575'		JRST FND
   665	000567'	200 12 0 06 000003 		MOVE FLAG,3(TX)
   666	000570'	200 12 0 12 000000 		MOVE FLAG,(FLAG)
   667	000571'	200 01 0 04 000000 		MOVE TEMP,(SX)
   668	000572'	200 01 0 01 000003 		MOVE TEMP,3(TEMP)
   669	000573'	315 12 0 01 000000 		CAMGE FLAG,(TEMP)
   670	000574'	254 00 0 00 000554'		JRST TRYNXT
   671	000575'	200 07 0 06 000000 	FND:	MOVE C,(TX)
   672	000576'	200 04 0 00 000005 		MOVE SX,BYTEX
   673	000577'	254 00 0 00 000554'		JRST TRYNXT
CROSS (OR CREF) - VERSION 14.3-37.0	MACRO %53B(1156)-1 17:40 25-Feb-88 Page 12-1
CROSS	MAC	15-Sep-76 01:35		CROSS REFERENCE GENERATION PROGRAM -AUG 21,1975

   674
CROSS (OR CREF) - VERSION 14.3-37.0	MACRO %53B(1156)-1 17:40 25-Feb-88 Page 13
CROSS	MAC	15-Sep-76 01:35		CROSS REFERENCE GENERATION PROGRAM -AUG 21,1975

   675	000600'	202 04 0 00 002641'	OUTP:	MOVEM SX,SBTBUF	;SAVE SUBTITLE
   676	000601'	336 04 0 00 004112'		SKIPN SX,LINKL
   677	000602'	263 17 0 00 000000 	CPOPJ:	POPJ P,	;NONE THERE
   678	000603'	260 17 0 00 000454'		PUSHJ P,OUTWD
   679	000604'	661 16 0 00 000004 		TLO IO,IOPAGE
   680	000605'	331 00 0 04 000002 	OUTPA:	SKIPL 2(SX)	;IGNORE SYMBOL?
   681	000606'	254 00 0 00 000636'		JRST LNKOUT	;YES
   682	000607'	260 17 0 00 001530'		PUSHJ P,LINOUT
   683	000610'	200 10 0 04 000000 		MOVE CS,(SX)
   684	000611'	260 17 0 00 000454'		PUSHJ P,OUTWD
   685	000612'	260 17 0 00 000441'		PUSHJ P,OUTASC
   686	000613'	200 10 0 04 000000 		MOVE CS,(SX)
   687	000614'	200 06 0 04 000001 		MOVE TX,1(SX)
   688	000615'	316 10 0 06 000000 		CAMN CS,(TX)	;SAME SYMBOL NAME
   689	000616'	254 00 0 00 000622'		JRST ISBLK	;YES, PRINT BLOCK
   690	000617'	627 16 0 00 010000 		TLZN IO,IOSAME	;OR LAST OF SET THAT IS THE SAME?
   691	000620'	254 00 0 00 000631'		JRST NOBLK	;NO
   692	000621'	334 00 0 00 000000 		SKIPA
   693	000622'	661 16 0 00 010000 	ISBLK:	TLO IO,IOSAME
   694	000623'	260 17 0 00 001524'	DOBLK:	PUSHJ P,TABOUT
   695	000624'	200 10 0 04 000003 		MOVE CS,3(SX)
   696	000625'	200 10 0 10 000000 		MOVE CS,(CS)
   697	000626'	260 17 0 00 000454'		PUSHJ P,OUTWD
   698	000627'	260 17 0 00 000441'		PUSHJ P,OUTASC
   699	000630'	254 00 0 00 000633'		JRST NOBLK2
   700	000631'	201 10 0 00 000000 	NOBLK:	MOVEI CS,0
   701	000632'	260 17 0 00 000454'		PUSHJ P,OUTWD
   702	000633'	200 10 0 00 004113'	NOBLK2:	MOVE CS,PNAME
   703	000634'	260 17 0 00 000454'		PUSHJ P,OUTWD
   704	000635'	260 17 0 00 000641'		PUSHJ P,OUTP1
   705	000636'	336 04 0 04 000001 	LNKOUT:	SKIPN SX,1(SX)
   706	000637'	263 17 0 00 000000 		POPJ P,
   707	000640'	254 00 0 00 000605'		JRST OUTPA
   708
   709	000641'	201 12 0 04 000003 	OUTP1:	MOVEI FLAG,3(SX)
   710	000642'	554 12 0 12 000000 	LINLP:	HLRZ FLAG,(FLAG)
   711	000643'	322 12 0 00 000652'		JUMPE FLAG,LAST
   712	000644'	550 05 0 12 000000 		HRRZ BYTEX,(FLAG)
   713	000645'	505 05 0 00 360600 		HRLI BYTEX,(POINT 6,0,5)
   714	000646'	271 05 0 00 000001 		ADDI BYTEX,1
   715	000647'	200 06 0 05 777777 		MOVE BYTEM,-1(BYTEX)
   716	000650'	260 17 0 00 000662'		PUSHJ P,OUTP2
   717	000651'	254 00 0 00 000642'		JRST LINLP
   718	000652'	550 05 0 04 000002 	LAST:	HRRZ BYTEX,2(SX)
   719	000653'	505 05 0 00 360600 		HRLI BYTEX,(POINT 6,0,5)
   720	000654'	271 05 0 00 000001 		ADDI BYTEX,1
   721	000655'	200 06 0 05 777777 		MOVE BYTEM,-1(BYTEX)
   722	000656'	135 11 0 00 000005 		LDB LINE,BYTEX
   723	000657'	602 11 0 00 000004 		TRNE LINE,4
   724	000660'	664 16 0 00 000020 		TROA IO,IOEXT	;EXTERN, SET FLAG
   725	000661'	620 16 0 00 000020 		TRZ IO,IOEXT	;NOPE
   726	000662'	201 11 0 00 000000 	OUTP2:	MOVEI LINE,0
   727	000663'	260 17 0 00 001473'	R3:	PUSHJ P,GETVAL
   728	000664'	254 00 0 00 000677'		JRST FINOUP
   729	000665'	606 16 0 00 000004 		TRNN IO,IOSOUT
CROSS (OR CREF) - VERSION 14.3-37.0	MACRO %53B(1156)-1 17:40 25-Feb-88 Page 13-1
CROSS	MAC	15-Sep-76 01:35		CROSS REFERENCE GENERATION PROGRAM -AUG 21,1975

   730	000666'	254 00 0 00 000675'		JRST NOSO
   731	000667'	603 16 0 00 000020 		TLNE IO,IODEF
   732	000670'	660 07 0 00 400000 		TRO C,400000
   733	000671'	602 16 0 00 000020 		TRNE IO,IOEXT
   734	000672'	660 07 0 00 200000 		TRO C,200000	;SET IF EXTERNAL
   735	000673'	260 17 0 00 000704'		PUSHJ P,HOUT
   736	000674'	620 07 0 00 600000 		TRZ C,600000
   737	000675'	260 17 0 00 000426'	NOSO:	PUSHJ P,CNVRT
   738	000676'	254 00 0 00 000663'		JRST R3
   739
   740	000677'	606 16 0 00 000004 	FINOUP:	TRNN IO,IOSOUT
   741	000700'	263 17 0 00 000000 		POPJ P,
   742	000701'	514 10 0 00 004111'		HRLZ CS,HWD
   743	000702'	402 00 0 00 004111'		SETZM HWD
   744	000703'	254 00 0 00 000454'		JRST OUTWD
   745
   746	000704'	332 00 0 00 004111'	HOUT:	SKIPE HWD
   747						JRST	[MOVE CS,C
   748							HRL CS,HWD
   749							PUSHJ P,OUTWD
   750							SETZM HWD
   751	000705'	254 00 0 00 002504'			POPJ P,]
   752	000706'	562 07 0 00 004111'		HRROM C,HWD
   753	000707'	263 17 0 00 000000 			POPJ P,
   754
CROSS (OR CREF) - VERSION 14.3-37.0	MACRO %53B(1156)-1 17:40 25-Feb-88 Page 14
CROSS	MAC	15-Sep-76 01:35		CROSS REFERENCE GENERATION PROGRAM -AUG 21,1975

   755	000710'	260 17 0 00 002240'	FREAD:	PUSHJ P,READ	;GET CHARACTER COUNT
   756	000711'	200 02 0 00 000007 		MOVE TEMP1,C
   757	000712'	201 00 0 00 000000 		MOVEI AC0,0
   758	000713'	260 17 0 00 002240'	FM4:	PUSHJ P,READ
   759	000714'	242 00 0 00 000006 		LSH AC0,6
   760	000715'	275 07 0 00 000040 		SUBI C,40
   761	000716'	405 07 0 00 000077 		ANDI C,77
   762	000717'	434 00 0 00 000007 		IOR AC0,C
   763	000720'	367 02 0 00 000713'		SOJG TEMP1,FM4
   764	000721'	263 17 0 00 000000 		POPJ P,
   765
   766					; HERE TO READ A "NEW" CODE
   767					; A '177' HAS JUST BEEN SEEN - DECODE WHAT IS AHEAD OF US
   768	000722'	260 17 0 00 002240'	FAILM:	PUSHJ P,READ	;READ NEXT CODE
   769	000723'	302 07 0 00 000102 		CAIE C,102	;IS IT START CODE ?
   770	000724'	254 00 0 00 000744'		JRST NOTINF	;NO, PUT OUT 177 AND THIS CHAR
   771	000725'	661 16 0 00 000010 		TLO IO,IOFAIL	;THIS IS FAIL(NEW METHOD)
   772	000726'	260 17 0 00 002240'	FM2:	PUSHJ P,READ	;READ NEXT CODE
   773	000727'	306 07 0 00 000177 		CAIN C,177	;POSSIBLE END CODE?
   774	000730'	254 00 0 00 000752'		JRST TEND	;YES, CHECK
   775	000731'	303 07 0 00 000020 		CAILE C,20	;IN RANGE?
   776						JRST	[MOVEI RC,[SIXBIT /(NM) Improper data code@/]
   777	000732'	254 00 0 00 002515'			JRST ERROR]
   778	000733'	620 16 0 00 000020 		TRZ IO,IOEXT
   779	000734'	256 00 0 07 001011'		XCT DTAB-1(C)
   780	000735'	322 04 0 00 000726'		JUMPE SX,FM2
   781	000736'	623 04 0 00 020000 		TLZE SX,IODF2	;DO WE WANT TO DEFINE IT?
   782	000737'	665 16 0 00 000020 		TLOA IO,IODEF	;YES, SET FLAG
   783	000740'	621 16 0 00 000020 		TLZ IO,IODEF	;JUST TO MAKE SURE
   784	000741'	260 17 0 00 000710'		PUSHJ P,FREAD	;GET THE SYMBOL
   785	000742'	260 17 0 00 000337'	FM6:	PUSHJ P,M5	;GO ENTER SYYMBOL
   786	000743'	254 00 0 00 000726'		JRST FM2
   787
   788					; HERE WHEN 177 WAS SEEN AND WAS NOT A START CODE (177 102)
   789	000744'	261 17 0 00 000007 	NOTINF:	PUSH P,C	;PUT IT OUT AS IT WAS READ
   790	000745'	201 07 0 00 000177 		MOVEI C,177	;FIRST PUT OUT A 177
   791	000746'	607 16 0 00 000001 		TLNN IO,IOLST
   792	000747'	260 17 0 00 001565'		PUSHJ P,WRITE
   793	000750'	262 17 0 00 000007 		POP P,C	;GET BACK CHAR FOLLOWING 177
   794	000751'	254 00 0 00 000252'		JRST M1		;BACK INTO MAIN STREAM
   795
   796					; HERE WHEN A 177 WAS SEEN AFTER A START CODE (177 102 ... 177)
   797					; CHECK TO SEE IF A VALID END CODE
   798	000752'	260 17 0 00 001052'	TEND:	PUSHJ P,DFLAB	;CHECK TO SEE IF DEFINING SYMBOL
   799	000753'	260 17 0 00 002240'		PUSHJ P,READ	;CHECK FOR END CHARACTER
   800	000754'	307 07 0 00 000110 		CAIG C,110	;110=VALID HIGH END CODE
   801	000755'	307 07 0 00 000100 		CAIG C,100	;101=VALID LOW END CODE
   802					IECERR:	JRST	[MOVEI RC,[SIXBIT /(NM) Improper end code@/]
   803	000756'	254 00 0 00 002523'			JRST ERROR]
   804	000757'	202 07 0 00 002637'		MOVEM C,CHOLD	;SAVE THE END CODE (FOR M2#### CODE)
   805	000760'	306 07 0 00 000104 		CAIN C,104	;JUST A PLAIN END OF CREF INFO?
   806	000761'	254 00 0 00 000254'		JRST M2		;JUST EAT INFO BUT NO LINE NUMBER
   807	000762'	621 16 0 00 000040 		TLZ IO,IOENDL	;ONLY IF A LINE NUMBER IS TO BE PUT OU
   808	000763'	306 07 0 00 000101 		CAIN C,101	;END, PUT OUT AND SET TABS?
   809	000764'	661 16 0 00 000200 		TLO IO,IOTABS	;YES, SET TAB FLAG
CROSS (OR CREF) - VERSION 14.3-37.0	MACRO %53B(1156)-1 17:40 25-Feb-88 Page 14-1
CROSS	MAC	15-Sep-76 01:35		CROSS REFERENCE GENERATION PROGRAM -AUG 21,1975

   810	000765'	302 07 0 00 000106 		CAIE C,106	;END AND INCREMENT?
   811	000766'	306 07 0 00 000107 		CAIN C,107	;OR END, INCREMENT BUT DONT USE?
   812	000767'	254 00 0 00 000313'		JRST	M2BINC	;YES, JUMP INTO MAIN STREAM WHCH DOES INC
   813	000770'	306 07 0 00 000110 		CAIN C,110	;END AND EAT LINE NUMBER?
   814	000771'	254 00 0 00 000776'		JRST EATLIN	;YES, GO TO IT
   815	000772'	606 07 0 00 000001 		TRNN C,1
   816	000773'	254 00 0 00 000756'		JRST	IECERR
   817	000774'	200 07 0 00 002640'		MOVE C,LINEX	;SET UP TO ENTER
   818	000775'	254 00 0 00 000307'		JRST M2B
   819
   820					; HERE ON A CODE 110
   821					; THIS ALWAYS COMES IN AS:
   822					; 177 110 LB3 LB2 LB1
   823					; WHERE LB3,LB2,LB1 ARE THE 21 BITS OF THE LINE NUMBER TO USE
   824	000776'	402 00 0 00 002642'	EATLIN:	SETZM	LN2COM		;LINE NUMBER TO BUILD
   825	000777'	260 17 0 00 002236'		PUSHJ	P,READXX		;GET NEXT 7-BITS
   826	001000'	137 07 0 00 002525'		DPB	C,[POINT 7,LN2COM,21]
   827	001001'	260 17 0 00 002236'		PUSHJ	P,READXX		;GET NEXT 7-BITS
   828	001002'	137 07 0 00 002526'		DPB	C,[POINT 7,LN2COM,28]
   829	001003'	260 17 0 00 002236'		PUSHJ	P,READXX		;GET LAST 7-BITS
   830	001004'	137 07 0 00 002527'		DPB	C,[POINT 7,LN2COM,35]
   831					COMMENT *
   832					THE NEW LINE NUMBER WE ARE TO USE (LN2COM) MUST BE GREATER
   833					THAN THE CURRENT LINE NUMBER, ELSE AN ERROR WILL BE
   834					GENERATED *
   835	001005'	311 11 0 00 002642'		CAML	LINE,LN2COM	;NEW LINE BIGGER ?
   836						JRST	[MOVEI RC,[SIXBIT/(NM) code 110 specified non-sequential line number@/]
   837	001006'	254 00 0 00 002541'			JRST ERROR]
   838	001007'	200 11 0 00 002642'		MOVE	LINE,LN2COM	;YES,GET NEW LINE NUMBER
   839	001010'	202 11 0 00 002640'		MOVEM	LINE,LINEX	;MAKE NUMBERS JIVE
   840	001011'	254 00 0 00 000254'		JRST	M2		;BACK INTO MAIN STREAM
   841
   842	001012'	254 00 0 00 001216'	DTAB:	JRST SETLAB
   843	001013'	254 00 0 00 001223'		JRST DLAB
   844	001014'	205 04 0 00 200000 		MOVSI SX,IOOP
   845	001015'	205 04 0 00 220000 		MOVSI SX,IOOP!IODF2
   846	001016'	205 04 0 00 100000 		MOVSI SX,IOMAC
   847	001017'	205 04 0 00 120000 		MOVSI SX,IOMAC!IODF2
   848	001020'	403 04 0 00 003426'		SETZB SX,SVLAB
   849	001021'	254 00 0 00 001114'		JRST COMBIN
   850	001022'	254 00 0 00 001061'		JRST DEFSYM
   851						JRST	[MOVEI RC,[SIXBIT/(NM) bad code 12 specified@/]
   852	001023'	254 00 0 00 002550'			JRST ERROR]
   853	001024'	254 00 0 00 001060'		JRST DEFMAC
   854						JRST	[MOVEI RC,[SIXBIT/(NM) bad code 14 specified@/]
   855	001025'	254 00 0 00 002557'			JRST ERROR]
   856	001026'	254 00 0 00 001225'		JRST BBEG
   857	001027'	254 00 0 00 001231'		JRST BBEND
   858	001030'	254 00 0 00 001222'		JRST DLBEXT
   859	001031'	254 00 0 00 001032'		JRST RDTTL	;TITLE
   860
   861	001032'	201 02 0 00 000310 	RDTTL:	MOVEI TEMP1,^D200	;COUNT
   862	001033'	332 00 0 00 003346'		SKIPE TIBUF
   863	001034'	634 01 0 00 000001 		TDZA TEMP,TEMP	;TAKE ONLY FIRST ONE
   864	001035'	200 01 0 00 002501'		MOVE TEMP,[POINT 7,TIBUF]
CROSS (OR CREF) - VERSION 14.3-37.0	MACRO %53B(1156)-1 17:40 25-Feb-88 Page 14-2
CROSS	MAC	15-Sep-76 01:35		CROSS REFERENCE GENERATION PROGRAM -AUG 21,1975

   865	001036'	260 17 0 00 002240'	TLP1:	PUSHJ P,READ
   866	001037'	306 07 0 00 000177 		CAIN C,177
   867	001040'	254 00 0 00 001046'		JRST ENDTL
   868	001041'	361 02 0 00 001036'		SOJL TEMP1,TLP1
   869	001042'	306 07 0 00 000012 		CAIN C,12
   870	001043'	660 16 0 00 000040 		TRO IO,IOSUBT	;SHOW THAT PROGRAM SUPPLIED A SUBTITLE
   871	001044'	136 07 0 00 000001 		IDPB C,TEMP
   872	001045'	254 00 0 00 001036'		JRST TLP1
   873	001046'	201 02 0 00 000000 	ENDTL:	MOVEI TEMP1,0
   874	001047'	136 02 0 00 000001 		IDPB TEMP1,TEMP
   875	001050'	254 00 0 00 000752'		JRST TEND	;SEEN 177 SOMETHING
   876
   877	001051'	665 16 0 00 000020 	DFLABD:	TLOA IO,IODEF	;DEFINITION
   878	001052'	621 16 0 00 000020 	DFLAB:	TLZ IO,IODEF	;NOT DEFINITION
   879	001053'	200 00 0 00 003426'		MOVE AC0,SVLAB
   880	001054'	322 00 0 00 000602'		JUMPE AC0,CPOPJ	;NO, EXIT
   881	001055'	205 04 0 00 040000 		MOVSI SX,IOSYM	;A SYMBOL
   882	001056'	402 00 0 00 003426'		SETZM SVLAB	;NOT ANY MORE
   883	001057'	254 00 0 00 000337'		JRST M5		;GO ENTER IT
   884
CROSS (OR CREF) - VERSION 14.3-37.0	MACRO %53B(1156)-1 17:40 25-Feb-88 Page 15
CROSS	MAC	15-Sep-76 01:35		CROSS REFERENCE GENERATION PROGRAM -AUG 21,1975

   885	001060'	334 04 0 00 002561'	DEFMAC:	SKIPA SX,[MACTBL]
   886	001061'	201 04 0 00 003576'	DEFSYM:	MOVEI SX,SYMTBL
   887	001062'	261 17 0 00 000004 		PUSH P,SX
   888	001063'	260 17 0 00 001052'		PUSHJ P,DFLAB
   889	001064'	262 17 0 00 000004 		POP P,SX
   890	001065'	260 17 0 00 000710'		PUSHJ P,FREAD
   891	001066'	200 05 0 00 000000 		MOVE BYTEX,AC0
   892	001067'	231 05 0 00 000145 		IDIVI BYTEX,HASH
   893	001070'	217 00 0 00 000006 		MOVMS TX
   894	001071'	271 06 0 04 000000 		ADDI TX,(SX)
   895	001072'	336 04 0 06 000000 		SKIPN SX,(TX)
   896	001073'	254 00 0 00 001112'		JRST DEFBYP
   897	001074'	316 00 0 04 000000 	DEFS1:	CAMN AC0,(SX)	;FIND SYMBOL
   898	001075'	254 00 0 00 001101'		JRST DEFFD
   899	001076'	332 04 0 04 000001 		SKIPE SX,1(SX)
   900	001077'	254 00 0 00 001074'		JRST DEFS1
   901	001100'	254 00 0 00 001112'		JRST DEFBYP	;NO FOUND
   902	001101'	260 17 0 00 000710'	DEFFD:	PUSHJ P,FREAD	;NOW GET DEFINITION
   903	001102'	334 00 0 00 000000 		SKIPA
   904	001103'	242 00 0 00 000006 		LSH AC0,6
   905	001104'	607 00 0 00 770000 		TLNN AC0,770000
   906	001105'	254 00 0 00 001103'		JRST .-2
   907	001106'	202 00 0 04 000000 		MOVEM AC0,(SX)
   908	001107'	200 00 0 00 004110'		MOVE AC0,BLKND	;AND BLOCK
   909	001110'	542 00 0 04 000003 		HRRM AC0,3(SX)
   910	001111'	254 00 0 00 000726'		JRST FM2
   911	001112'	260 17 0 00 000710'	DEFBYP:	PUSHJ P,FREAD
   912	001113'	254 00 0 00 000726'		JRST FM2
   913	001114'	260 17 0 00 001052'	COMBIN:	PUSHJ P,DFLAB	;JUST IN CASE ANY ARE WAITING
   914	001115'	260 17 0 00 000710'		PUSHJ P,FREAD	;GET FIRST
   915	001116'	200 05 0 00 000000 		MOVE BYTEX,AC0	;AND FINE
   916	001117'	231 05 0 00 000145 		IDIVI BYTEX,HASH
   917	001120'	217 00 0 00 000006 		MOVMS TX
   918	001121'	201 04 0 06 003575'		MOVEI SX,SYMTBL-1(TX)
   919	001122'	200 01 0 00 000004 	CMB1:	MOVE TEMP,SX
   920	001123'	336 04 0 01 000001 		SKIPN SX,1(TEMP)
   921	001124'	254 00 0 00 001112'		JRST DEFBYP
   922	001125'	312 00 0 04 000000 		CAME AC0,(SX)
   923	001126'	254 00 0 00 001122'		JRST CMB1
   924	001127'	260 17 0 00 000710'		PUSHJ P,FREAD	;GET OTHER NAME
   925	001130'	200 05 0 00 000000 		MOVE BYTEX,AC0
   926	001131'	231 05 0 00 000145 		IDIVI BYTEX,HASH
   927	001132'	217 00 0 00 000006 		MOVMS TX
   928	001133'	201 02 0 06 003575'		MOVEI TEMP1,SYMTBL-1(TX)
   929	001134'	200 06 0 00 000002 	CMB2:	MOVE TX,TEMP1
   930	001135'	336 02 0 06 000001 		SKIPN TEMP1,1(TX)
   931	001136'	254 00 0 00 001175'		JRST MOVSYM
   932	001137'	312 00 0 02 000000 		CAME AC0,(TEMP1)
   933	001140'	254 00 0 00 001134'		JRST CMB2
   934	001141'	135 05 0 00 002562'		LDB BYTEX,[POINT 17,2(TEMP1),17]	;GET LINE
   935	001142'	135 00 0 00 002563'		LDB AC0,[POINT 17,2(SX),17]
   936	001143'	311 05 0 00 000000 		CAML BYTEX,AC0	;AND SEE WHICH IS SMALLER
   937	001144'	254 00 0 00 001153'		JRST CMBOK	;SMALLER IS ONE TO DELETE
   938	001145'	200 00 0 04 000002 		MOVE AC0,2(SX)
   939	001146'	250 00 0 02 000002 		EXCH AC0,2(TEMP1)
CROSS (OR CREF) - VERSION 14.3-37.0	MACRO %53B(1156)-1 17:40 25-Feb-88 Page 15-1
CROSS	MAC	15-Sep-76 01:35		CROSS REFERENCE GENERATION PROGRAM -AUG 21,1975

   940	001147'	202 00 0 04 000002 		MOVEM AC0,2(SX)
   941	001150'	200 00 0 04 000003 		MOVE AC0,3(SX)
   942	001151'	250 00 0 02 000003 		EXCH AC0,3(TEMP1)
   943	001152'	202 00 0 04 000003 		MOVEM AC0,3(SX)
   944	001153'	200 05 0 00 000013 	CMBOK:	MOVE BYTEX,FREE
   945	001154'	271 13 0 00 000002 		ADDI FREE,2
   946	001155'	311 13 0 00 000015 		CAML FREE,TOP
   947	001156'	260 17 0 00 001607'		PUSHJ P,XCEED
   948	001157'	200 00 0 04 000002 		MOVE AC0,2(SX)	;THIS CODE IS MAJIC
   949	001160'	500 00 0 02 000003 		HLL AC0,3(TEMP1)
   950	001161'	202 00 0 05 000000 		MOVEM AC0,(BYTEX)
   951	001162'	336 00 0 02 000003 		SKIPN 3(TEMP1)
   952	001163'	202 05 0 02 000003 		MOVEM BYTEX,3(TEMP1)
   953	001164'	200 07 0 04 000003 		MOVE C,3(SX)
   954	001165'	502 07 0 02 000003 		HLLM C,3(TEMP1)
   955						JUMPE C,[HRLM BYTEX,3(TEMP1)
   956	001166'	322 07 0 00 002564'			JRST .+2]
   957	001167'	506 05 0 07 000000 		HRLM BYTEX,(C)
   958	001170'	200 06 0 00 003430'	CMB3:	MOVE TX,FSTPNT	;PUT DELETE BACK ON FREE
   959	001171'	250 06 0 04 000001 		EXCH TX,1(SX)	;AND LINK AROUND
   960	001172'	202 04 0 00 003430'		MOVEM SX,FSTPNT
   961	001173'	202 06 0 01 000001 		MOVEM TX,1(TEMP)
   962	001174'	254 00 0 00 000726'		JRST FM2
   963	001175'	200 05 0 00 000000 	MOVSYM:	MOVE BYTEX,AC0	;GET THE SYMBOL NAME AGAIN
   964	001176'	231 05 0 00 000145 		IDIVI BYTEX,HASH
   965	001177'	217 00 0 00 000006 		MOVMS TX
   966	001200'	332 02 0 00 003430'		SKIPE TEMP1,FSTPNT	;GET A BLOCK
   967						JRST	[MOVE BYTEX,1(TEMP1)
   968							MOVEM BYTEX,FSTPNT
   969	001201'	254 00 0 00 002566'			JRST MOVS1]
   970	001202'	200 02 0 00 000013 		MOVE TEMP1,FREE
   971	001203'	271 13 0 00 000004 		ADDI FREE,4
   972	001204'	311 13 0 00 000015 		CAML FREE,TOP
   973	001205'	260 17 0 00 001607'		PUSHJ P,XCEED
   974	001206'	200 05 0 06 003576'	MOVS1:	MOVE BYTEX,SYMTBL(TX)	;INSERT SYMBOL
   975	001207'	202 05 0 02 000001 		MOVEM BYTEX,1(TEMP1)
   976	001210'	202 02 0 06 003576'		MOVEM TEMP1,SYMTBL(TX)
   977	001211'	202 00 0 02 000000 		MOVEM AC0,(TEMP1)
   978	001212'	505 05 0 04 000002 		HRLI BYTEX,2(SX)
   979	001213'	541 05 0 02 000002 		HRRI BYTEX,2(TEMP1)
   980	001214'	251 05 0 02 000003 		BLT BYTEX,3(TEMP1)	;MOVE INFORMATION
   981	001215'	254 00 0 00 001170'		JRST CMB3	;AND GO DELETE OLD ONE
   982
CROSS (OR CREF) - VERSION 14.3-37.0	MACRO %53B(1156)-1 17:40 25-Feb-88 Page 16
CROSS	MAC	15-Sep-76 01:35		CROSS REFERENCE GENERATION PROGRAM -AUG 21,1975

   983	001216'	260 17 0 00 001052'	SETLAB:	PUSHJ P,DFLAB	;DEFINE ANY WAITING
   984	001217'	260 17 0 00 000710'		PUSHJ P,FREAD	;GET NEW ONE
   985	001220'	202 00 0 00 003426'		MOVEM AC0,SVLAB	;SAVE IT
   986	001221'	254 00 0 00 000726'		JRST FM2	;AND BACK FOR MORE
   987
   988	001222'	660 16 0 00 000020 	DLBEXT:	TRO IO,IOEXT	;SAME AS DLAB BUT EXTERNAL
   989	001223'	260 17 0 00 001051'	DLAB:	PUSHJ P,DFLABD	;GO DEFINE IT
   990	001224'	254 00 0 00 000726'		JRST FM2
   991
   992	001225'	350 01 0 00 003425'	BBEG:	AOS TEMP,LEVEL	;GET CURRENT LEVEL
   993	001226'	205 04 0 00 000000 		MOVSI SX,0
   994	001227'	260 17 0 00 001236'		PUSHJ P,COMBG	;GO INSER
   995	001230'	254 00 0 00 000726'		JRST FM2
   996
   997	001231'	200 01 0 00 003425'	BBEND:	MOVE TEMP,LEVEL	;CURRENT LEVEL
   998	001232'	201 04 0 00 000001 		MOVEI SX,1
   999	001233'	260 17 0 00 001236'		PUSHJ P,COMBG
  1000	001234'	370 00 0 00 003425'		SOS LEVEL	;RESET
  1001	001235'	254 00 0 00 000726'		JRST FM2
  1002
  1003	001236'	260 17 0 00 000710'	COMBG:	PUSHJ P,FREAD	;GET NAME
  1004	001237'	334 00 0 00 000000 		SKIPA
  1005	001240'	242 00 0 00 000006 		LSH AC0,6
  1006	001241'	607 00 0 00 770000 		TLNN AC0,770000
  1007	001242'	254 00 0 00 001240'		JRST .-2
  1008	001243'	200 02 0 00 000013 		MOVE TEMP1,FREE
  1009	001244'	271 13 0 00 000004 		ADDI FREE,4	;RESERVE 4 WORDS
  1010	001245'	311 13 0 00 000015 		CAML FREE,TOP
  1011	001246'	260 17 0 00 001607'		PUSHJ P,XCEED	;OVERLAP
  1012	001247'	202 00 0 02 000000 		MOVEM AC0,(TEMP1)	;SAVE NAME
  1013	001250'	516 01 0 02 000001 		HRLZM TEMP,1(TEMP1)	;AND LEVEL
  1014	001251'	202 11 0 02 000002 		MOVEM LINE,2(TEMP1)	;AND CURRENT LINE
  1015	001252'	506 04 0 02 000002 		HRLM SX,2(TEMP1)
  1016	001253'	200 01 0 00 004110'		MOVE TEMP,BLKND	;SAVE CURRENT POINTER
  1017	001254'	542 02 0 01 000001 		HRRM TEMP1,1(TEMP)	;SET UP LINK
  1018	001255'	202 02 0 00 004110'		MOVEM TEMP1,BLKND
  1019	001256'	263 17 0 00 000000 		POPJ P,
  1020
  1021	001257'	260 17 0 00 001530'	BLKPRN:	PUSHJ P,LINOUT
  1022	001260'	200 10 1 00 004110'		MOVE CS,@BLKND
  1023	001261'	260 17 0 00 000441'		PUSHJ P,OUTASC
  1024	001262'	201 07 0 00 000011 		MOVEI C,11
  1025	001263'	260 17 0 00 001565'		PUSHJ P,WRITE
  1026	001264'	200 10 0 00 002571'		MOVE CS,[SIXBIT /PROGRAM/]
  1027	001265'	260 17 0 00 000441'		PUSHJ P,OUTASC
  1028	001266'	201 07 0 00 000115 		MOVEI C,"M"
  1029	001267'	260 17 0 00 001565'		PUSHJ P,WRITE
  1030	001270'	260 17 0 00 001530'	BLKP3:	PUSHJ P,LINOUT
  1031	001271'	554 06 0 05 000001 		HLRZ BYTEM,1(BYTEX)
  1032	001272'	242 06 0 00 777777 		LSH BYTEM,-1
  1033	001273'	322 06 0 00 001276'		JUMPE BYTEM,BLKP1
  1034	001274'	260 17 0 00 001524'		PUSHJ P,TABOUT
  1035	001275'	367 06 0 00 001274'		SOJG BYTEM,.-1
  1036	001276'	554 06 0 05 000001 	BLKP1:	HLRZ BYTEM,1(BYTEX)
  1037	001277'	554 04 0 05 000002 		HLRZ SX,2(BYTEX)
CROSS (OR CREF) - VERSION 14.3-37.0	MACRO %53B(1156)-1 17:40 25-Feb-88 Page 16-1
CROSS	MAC	15-Sep-76 01:35		CROSS REFERENCE GENERATION PROGRAM -AUG 21,1975

  1038	001300'	602 06 0 00 000001 		TRNE BYTEM,1
  1039	001301'	271 04 0 00 000004 		ADDI SX,4
  1040	001302'	322 04 0 00 001306'		JUMPE SX,BLKP2
  1041	001303'	201 07 0 00 000040 		MOVEI C," "
  1042	001304'	260 17 0 00 001565'		PUSHJ P,WRITE
  1043	001305'	367 04 0 00 001303'		SOJG SX,.-2
  1044	001306'	200 10 0 05 000000 	BLKP2:	MOVE CS,(BYTEX)
  1045	001307'	260 17 0 00 000441'		PUSHJ P,OUTASC
  1046	001310'	554 04 0 05 000002 		HLRZ SX,2(BYTEX)
  1047	001311'	213 00 0 00 000004 		MOVNS SX
  1048	001312'	271 04 0 00 000005 		ADDI SX,5
  1049	001313'	334 10 0 05 000000 		SKIPA CS,(BYTEX)
  1050	001314'	242 10 0 00 777772 		LSH CS,-6
  1051	001315'	606 10 0 00 000077 		TRNN CS,77
  1052	001316'	344 04 0 00 001314'		AOJA SX,.-2
  1053	001317'	201 07 0 00 000040 		MOVEI C," "
  1054	001320'	260 17 0 00 001565'		PUSHJ P,WRITE
  1055	001321'	367 04 0 00 001320'		SOJG SX,.-1
  1056	001322'	550 07 0 05 000002 		HRRZ C,2(BYTEX)
  1057	001323'	260 17 0 00 000426'		PUSHJ P,CNVRT
  1058	001324'	550 05 0 05 000001 		HRRZ BYTEX,1(BYTEX)
  1059	001325'	326 05 0 00 001270'		JUMPN BYTEX,BLKP3
  1060	001326'	661 16 0 00 000004 		TLO IO,IOPAGE
  1061	001327'	263 17 0 00 000000 		POPJ P,
  1062
CROSS (OR CREF) - VERSION 14.3-37.0	MACRO %53B(1156)-1 17:40 25-Feb-88 Page 17
CROSS	MAC	15-Sep-76 01:35		CROSS REFERENCE GENERATION PROGRAM -AUG 21,1975

  1063	001330'	200 05 0 00 000000 	SRCH:	MOVE BYTEX,AC0	;GET SIXBIT
  1064	001331'	231 05 0 00 000145 		IDIVI BYTEX,HASH
  1065	001332'	217 00 0 00 000006 		MOVMS TX
  1066	001333'	603 04 0 00 200000 		TLNE SX,IOOP
  1067	001334'	201 06 0 06 003431'		MOVEI TX,OPTBL(TX)	;SEARCH CORRECT ONE
  1068	001335'	603 04 0 00 100000 		TLNE SX,IOMAC
  1069	001336'	201 06 0 06 003743'		MOVEI TX,MACTBL(TX)
  1070	001337'	603 04 0 00 040000 		TLNE SX,IOSYM
  1071	001340'	201 06 0 06 003576'		MOVEI TX,SYMTBL(TX)
  1072	001341'	336 04 0 06 000000 		SKIPN SX,(TX)
  1073	001342'	254 00 0 00 001347'		JRST NTFND
  1074	001343'	316 00 0 04 000000 	SRCH1:	CAMN AC0,(SX)
  1075	001344'	254 00 0 00 001406'		JRST STV10
  1076	001345'	332 04 0 04 000001 		SKIPE SX,1(SX)
  1077	001346'	254 00 0 00 001343'		JRST SRCH1
  1078	001347'	332 04 0 00 003430'	NTFND:	SKIPE SX,FSTPNT
  1079						JRST	[MOVE BYTEX,1(SX)
  1080							MOVEM BYTEX,FSTPNT	;RESET FREE STG
  1081	001350'	254 00 0 00 002573'			JRST NTFND1]
  1082	001351'	200 04 0 00 000013 		MOVE SX,FREE
  1083	001352'	271 13 0 00 000004 		ADDI FREE,4	;GET A SPACE TO PUT NEW SYMBOL
  1084	001353'	311 13 0 00 000015 		CAML FREE,TOP
  1085	001354'	260 17 0 00 001607'		PUSHJ P,XCEED
  1086	001355'	202 00 0 04 000000 	NTFND1:	MOVEM AC0,(SX)
  1087	001356'	200 05 0 06 000000 		MOVE BYTEX,(TX)	;LINK INTO TABLE
  1088	001357'	202 05 0 04 000001 		MOVEM BYTEX,1(SX)
  1089	001360'	202 04 0 06 000000 		MOVEM SX,(TX)
  1090	001361'	402 00 0 04 000003 		SETZM 3(SX)
  1091	001362'	200 06 0 00 000013 		MOVE TX,FREE
  1092	001363'	271 13 0 00 000002 		ADDI FREE,2
  1093	001364'	311 13 0 00 000015 		CAML FREE,TOP
  1094	001365'	260 17 0 00 001607'		PUSHJ P,XCEED
  1095	001366'	402 00 0 06 000001 		SETZM 1(TX)
  1096	001367'	201 05 0 06 000001 		MOVEI BYTEX,1(TX)
  1097	001370'	505 05 0 00 360600 		HRLI BYTEX,(POINT 6,0,5)
  1098	001371'	201 07 0 00 000001 		MOVEI C,1
  1099	001372'	603 16 0 00 000020 		TLNE IO,IODEF
  1100	001373'	640 07 0 00 000003 		TRC C,3
  1101	001374'	602 16 0 00 000020 		TRNE IO,IOEXT
  1102	001375'	435 07 0 00 000004 		ORI C,4		;EXTERN
  1103	001376'	137 07 0 00 002576'		DPB C,[POINT 6,1(TX),5]
  1104	001377'	200 07 0 00 000011 		MOVE C,LINE
  1105	001400'	242 07 0 00 000001 		LSH C,1
  1106	001401'	627 16 0 00 000020 		TLZN IO,IODEF
  1107	001402'	435 07 0 00 000001 		IORI C,1
  1108	001403'	506 11 0 04 000002 		HRLM LINE,2(SX)
  1109	001404'	542 06 0 04 000002 		HRRM TX,2(SX)
  1110	001405'	254 00 0 00 001442'		JRST STV12
  1111
  1112	001406'	135 07 0 00 002563'	STV10:	LDB	C,[POINT 17,2(SX),17]
  1113	001407'	550 06 0 04 000002 		HRRZ TX,2(SX)
  1114	001410'	135 01 0 00 002576'		LDB TEMP,[POINT 6,1(TX),5]
  1115	001411'	312 07 0 00 000011 		CAME C,LINE
  1116	001412'	254 00 0 00 001423'		JRST STV10A
  1117	001413'	607 16 0 00 000020 		TLNN IO,IODEF
CROSS (OR CREF) - VERSION 14.3-37.0	MACRO %53B(1156)-1 17:40 25-Feb-88 Page 17-1
CROSS	MAC	15-Sep-76 01:35		CROSS REFERENCE GENERATION PROGRAM -AUG 21,1975

  1118	001414'	254 00 0 00 001420'		JRST STV10B
  1119	001415'	662 01 0 00 000002 		TROE TEMP,2
  1120	001416'	263 17 0 00 000000 		POPJ P,
  1121	001417'	254 00 0 00 001427'		JRST STV10C
  1122	001420'	662 01 0 00 000001 	STV10B:	TROE TEMP,1
  1123	001421'	263 17 0 00 000000 		POPJ P,
  1124	001422'	254 00 0 00 001427'		JRST STV10C
  1125	001423'	620 01 0 00 000003 	STV10A:	TRZ TEMP,3
  1126	001424'	435 01 0 00 000001 		ORI TEMP,1
  1127	001425'	603 16 0 00 000020 		TLNE IO,IODEF
  1128	001426'	640 01 0 00 000003 		TRC TEMP,3
  1129	001427'	602 16 0 00 000020 	STV10C:	TRNE IO,IOEXT
  1130	001430'	435 01 0 00 000004 		ORI TEMP,4
  1131	001431'	137 01 0 00 002576'		DPB TEMP,[POINT 6,1(TX),5]
  1132	001432'				STV10D:
  1133	001432'	137 11 0 00 002563'		DPB	LINE,[POINT 17,2(SX),17]
  1134	001433'	242 11 0 00 000001 		LSH LINE,1
  1135	001434'	627 16 0 00 000020 		TLZN IO,IODEF
  1136	001435'	435 11 0 00 000001 		IORI LINE,1
  1137	001436'	242 07 0 00 000001 		LSH C,1
  1138	001437'	276 11 0 00 000007 		SUBM	LINE,C
  1139	001440'	242 11 0 00 777777 		LSH LINE,-1	;NOW ELIMINATE DEFINE BIT
  1140	001441'	200 05 0 06 000000 		MOVE	BYTEX,0(TX)
  1141
  1142	001442'	436 12 0 04 000002 	STV12:	ORM	FLAG,2(SX)
  1143	001443'	305 07 0 00 000040 		CAIGE	C,^D32
  1144	001444'	254 00 0 00 001457'		JRST	STV20
  1145	001445'	202 17 0 00 003421'		MOVEM	P,PPTEMP
  1146
  1147	001446'	231 07 0 00 000040 	STV14:	IDIVI	C,^D32
  1148	001447'	261 17 0 00 000010 		PUSH	P,CS
  1149	001450'	301 07 0 00 000040 		CAIL	C,^D32
  1150	001451'	254 00 0 00 001446'		JRST	STV14
  1151	001452'	660 07 0 00 000040 	STV16:	TRO	C,40
  1152	001453'	260 17 0 00 001457'		PUSHJ	P,STV20
  1153	001454'	262 17 0 00 000007 		POP	P,C
  1154	001455'	312 17 0 00 003421'		CAME	P,PPTEMP
  1155	001456'	254 00 0 00 001452'		JRST	STV16
  1156
  1157	001457'	602 05 0 00 000001 	STV20:	TRNE	BYTEX,1
  1158	001460'	311 05 0 00 002577'		CAML	BYTEX,[POINT 6,,16]
  1159	001461'	254 00 0 00 001470'		JRST	STV22
  1160	001462'	542 13 0 05 000000 		HRRM	FREE,0(BYTEX)
  1161	001463'	200 05 0 00 000013 		MOVE	BYTEX,FREE
  1162	001464'	505 05 0 00 440600 		HRLI	BYTEX,(POINT 6,,)
  1163	001465'	271 13 0 00 000002 		ADDI	FREE,2
  1164	001466'	311 13 0 00 000015 		CAML	FREE,TOP
  1165	001467'	260 17 0 00 001607'		PUSHJ	P,XCEED
  1166
  1167	001470'	136 07 0 00 000005 	STV22:	IDPB	C,BYTEX
  1168	001471'	202 05 0 06 000000 		MOVEM	BYTEX,0(TX)
  1169	001472'	263 17 0 00 000000 	POPOUT:	POPJ	P,
  1170
CROSS (OR CREF) - VERSION 14.3-37.0	MACRO %53B(1156)-1 17:40 25-Feb-88 Page 18
CROSS	MAC	15-Sep-76 01:35		CROSS REFERENCE GENERATION PROGRAM -AUG 21,1975

  1171	001473'	627 16 0 00 000020 	GETVAL:	TLZN IO,IODEF
  1172	001474'	254 00 0 00 001501'		JRST GETV20
  1173	001475'	201 07 0 00 000043 		MOVEI C,"#"
  1174	001476'	602 16 0 00 000020 		TRNE IO,IOEXT
  1175	001477'	201 07 0 00 000045 		MOVEI C,"%"	;EXTERN
  1176	001500'	260 17 0 00 001565'		PUSHJ P,WRITE
  1177	001501'	316 05 0 00 000006 	GETV20:	CAMN	BYTEX,BYTEM
  1178	001502'	263 17 0 00 000000 		POPJ	P,
  1179	001503'	350 00 0 17 000000 		AOS	0(P)
  1180	001504'	260 17 0 00 001524'		PUSHJ	P,TABOUT
  1181	001505'	201 07 0 00 000000 		MOVEI	C,0
  1182	001506'	602 05 0 00 000001 	GETV10:	TRNE	BYTEX,1
  1183	001507'	311 05 0 00 002577'		CAML	BYTEX,[POINT 6,,16]
  1184	001510'	254 00 0 00 001513'		JRST	GETV12
  1185	001511'	200 05 0 05 000000 		MOVE	BYTEX,0(BYTEX)
  1186	001512'	505 05 0 00 440600 		HRLI	BYTEX,(POINT 6,,)
  1187
  1188	001513'	134 10 0 00 000005 	GETV12:	ILDB	CS,BYTEX
  1189	001514'	241 10 0 00 777773 		ROT	CS,-5
  1190	001515'	246 07 0 00 000005 		LSHC	C,5
  1191	001516'	326 10 0 00 001506'		JUMPN	CS,GETV10
  1192	001517'	606 07 0 00 000001 		TRNN C,1	;SET DEFINED FLAG
  1193	001520'	661 16 0 00 000020 		TLO IO,IODEF
  1194	001521'	242 07 0 00 777777 		LSH C,-1
  1195	001522'	273 11 0 00 000007 		ADDB	LINE,C
  1196	001523'	263 17 0 00 000000 		POPJ	P,
  1197
CROSS (OR CREF) - VERSION 14.3-37.0	MACRO %53B(1156)-1 17:40 25-Feb-88 Page 19
CROSS	MAC	15-Sep-76 01:35		CROSS REFERENCE GENERATION PROGRAM -AUG 21,1975

  1198	001524'	201 07 0 00 000011 	TABOUT:	MOVEI	C,11
  1199	001525'	365 03 0 00 001542'		SOJGE	WPL,WRITE0
  1200	001526'	260 17 0 00 001530'		PUSHJ	P,LINOUT
  1201	001527'	254 00 0 00 001524'		JRST	TABOUT
  1202
  1203	001530'	377 00 0 00 003420'	LINOUT:	SOSG	LPP
  1204	001531'	661 16 0 00 000004 		TLO	IO,IOPAGE
  1205	001532'	201 07 0 00 000015 		MOVEI	C,15
  1206	001533'	260 17 0 00 001565'		PUSHJ	P,WRITE
  1207	001534'	201 07 0 00 000012 		MOVEI	C,12
  1208	001535'	260 17 0 00 001565'		PUSHJ	P,WRITE
  1209	001536'	201 03 0 00 000016 		MOVEI	WPL,WPLLPT		;ASSUME LINES FOR LPT
  1210	001537'	603 16 0 00 004000 		TLNE IO,IOTTY			;CORRECT ASSUMPTION?
  1211	001540'	201 03 0 00 000010 		MOVEI WPL,WPLTTY		;NO, SET UP LINES TO TTY
  1212
  1213	001541'	263 17 0 00 000000 		POPJ	P,
  1214
  1215	001542'	627 16 0 00 000004 	WRITE0:	TLZN	IO,IOPAGE
  1216	001543'	254 00 0 00 001565'		JRST	WRITE
  1217	001544'	261 17 0 00 000007 		PUSH	P,C
  1218	001545'	201 07 0 00 000014 		MOVEI	C,14
  1219	001546'	260 17 0 00 001565'		PUSHJ	P,WRITE
  1220	001547'	201 07 0 00 000070 		MOVEI	C,.LPP
  1221	001550'	202 07 0 00 003420'		MOVEM	C,LPP
  1222	001551'	332 00 0 00 003346'		SKIPE TIBUF	;IF TITLE THERE
  1223	001552'	260 17 0 00 001576'		PUSHJ P,OUTTL	;PUT IT OUT
  1224	001553'	332 00 0 00 003346'		SKIPE	TIBUF
  1225	001554'	602 16 0 00 000040 		TRNE	IO,IOSUBT
  1226	001555'	254 00 0 00 001557'		JRST	.+2		;IF THERE IS A TITLE BUT NO SUBTITLE,
  1227	001556'	260 17 0 00 001530'		PUSHJ	P,LINOUT	;OUTPUT A CR-LF
  1228	001557'	200 07 0 00 002641'		MOVE	C,SBTBUF
  1229	001560'	505 07 0 00 440700 		HRLI	C,(POINT 7,0)
  1230	001561'	260 17 0 00 001577'		PUSHJ	P,OUTTLX	;OUTPUT THE CREF SUBTITLE
  1231	001562'	260 17 0 00 001530'		PUSHJ	P,LINOUT
  1232	001563'	260 17 0 00 001530'		PUSHJ	P,LINOUT	;AND A BLANK LINE
  1233	001564'	262 17 0 00 000007 		POP	P,C
  1234
  1235	001565'	315 11 0 00 003422'	WRITE:	CAMGE LINE,FIRSTL	;HAVE WE REACHED REQUESTED LINE?
  1236	001566'	263 17 0 00 000000 		POPJ P,
  1237	001567'	377 00 0 00 002654'		SOSG	LSTBUF+2
  1238	001570'	260 17 0 00 002263'		PUSHJ	P,DMPLST
  1239	001571'	136 07 0 00 002653'		IDPB	C,LSTBUF+1
  1240	001572'	306 07 0 00 000012 		CAIN	C,12		;IF NOT LINE-FEED, OR
  1241	001573'	607 16 0 00 004000 		TLNN IO,IOTTY		;IF NOT TTY, DON'T OUTPUT EVERY LINE
  1242	001574'	263 17 0 00 000000 		POPJ	P,
  1243	001575'	254 00 0 00 002263'		JRST DMPLST		;OUPUT LINE
  1244
  1245	001576'	200 07 0 00 002501'	OUTTL:	MOVE C,[POINT 7,TIBUF]
  1246	001577'	202 07 0 00 004116'	OUTTLX:	MOVEM C,SVPTR#
  1247	001600'	134 07 0 00 004116'	OUTTL1:	ILDB C,SVPTR
  1248	001601'	322 07 0 00 001606'		JUMPE C,ENDRT
  1249	001602'	306 07 0 00 000012 		CAIN C,12
  1250	001603'	370 00 0 00 003420'		SOS LPP		;COUNT THE LINE
  1251	001604'	260 17 0 00 001565'		PUSHJ P,WRITE
  1252	001605'	254 00 0 00 001600'		JRST OUTTL1
CROSS (OR CREF) - VERSION 14.3-37.0	MACRO %53B(1156)-1 17:40 25-Feb-88 Page 19-1
CROSS	MAC	15-Sep-76 01:35		CROSS REFERENCE GENERATION PROGRAM -AUG 21,1975

  1253	001606'	263 17 0 00 000000 	ENDRT:	POPJ P,
  1254
CROSS (OR CREF) - VERSION 14.3-37.0	MACRO %53B(1156)-1 17:40 25-Feb-88 Page 20
CROSS	MAC	15-Sep-76 01:35		CROSS REFERENCE GENERATION PROGRAM -AUG 21,1975

  1255					;GET 1K MORE CORE AND MOVE THE SYMBOL TABLE (BOTH DDT'S AND CREF'S)
  1256					;UP INTO THE NEW SPACE
  1257
  1258	001607'	261 17 0 00 000000 	XCEED:	PUSH	P,0
  1259	001610'	261 17 0 00 000001 		PUSH	P,1
  1260	001611'	261 17 0 00 000002 		PUSH	P,2
  1261	001612'	550 01 0 00 000237*		HRRZ	1,JOBREL	;GET CURRENT TOP
  1262	001613'	201 00 0 01 002000 		MOVEI	0,2000(1)
  1263	001614'	047 00 0 00 000011 	XCEED2:	CORE	0,		;REQUEST MORE CORE
  1264	001615'	254 00 0 00 002341'		JRST	ERRCOR		;ERROR, BOMB OUT
  1265	001616'	550 02 0 00 001612*		HRRZ	2,JOBREL	;GET NEW TOP
  1266
  1267	001617'	200 00 0 01 000000 	XCEED1:	MOVE	0,0(1)		;GET ORIGIONAL
  1268	001620'	202 00 0 02 000000 		MOVEM	0,0(2)		;STORE IN NEW LOCATION
  1269	001621'	275 02 0 00 000001 		SUBI	2,1		;DECREMENT UPPER
  1270	001622'	313 01 0 00 000015 		CAMLE	1,TOP	;HAVE WE ARRIVED?
  1271	001623'	364 01 0 00 001617'		SOJA	1,XCEED1	;NO, GET ANOTHER
  1272	001624'	201 01 0 00 002000 		MOVEI	1,2000
  1273	001625'	272 01 0 00 000015 		ADDM	1,TOP
  1274	001626'	312 15 0 00 001616*		CAME TOP,JOBREL
  1275	001627'	272 01 0 00 000235*		ADDM 1,JOBSYM	;TOP=JOBREL ONLY IF SYMBOLS MOVED
  1276	001630'	262 17 0 00 000002 		POP	P,2
  1277	001631'	262 17 0 00 000001 		POP	P,1
  1278	001632'	262 17 0 00 000000 		POP	P,0
  1279	001633'	263 17 0 00 000000 		POPJ P,
  1280
CROSS (OR CREF) - VERSION 14.3-37.0	MACRO %53B(1156)-1 17:40 25-Feb-88 Page 21
CROSS	MAC	15-Sep-76 01:35		CROSS REFERENCE GENERATION PROGRAM -AUG 21,1975

  1281	001634'				FINIS:
  1282	001634'	627 16 0 00 000400 		TLZN IO,IOEOF	;END OF FILE SEEN?
  1283	001635'	254 00 0 00 000230'		JRST RECYCL	;NO, RECYCLE
  1284	001636'	603 16 0 00 000100 		TLNE IO,IORPG
  1285	001637'	254 00 0 00 001656'		JRST RPGFN
  1286	001640'	070 03 0 00 000000 		CLOSE LST,0	;THIS WILL CLOSE IT ONLY IF LAST THING
  1287	001641'	260 17 0 00 002147'		PUSHJ	P,CRLF
  1288	001642'	260 17 0 00 002147'		PUSHJ	P,CRLF
  1289	001643'	200 07 0 00 000013 		MOVE	C,FREE
  1290	001644'	242 07 0 00 777766 		LSH	C,-^D10
  1291	001645'	271 07 0 00 000001 		ADDI	C,1
  1292	001646'	231 07 0 00 000012 		IDIVI	C,^D10
  1293	001647'	322 07 0 00 001652'		JUMPE	C,FINIS1
  1294	001650'	271 07 0 00 000060 		ADDI	C,"0"
  1295	001651'	260 17 0 00 002152'		PUSHJ	P,TYO
  1296	001652'	201 07 0 10 000060 	FINIS1:	MOVEI	C,"0"(CS)
  1297	001653'	260 17 0 00 002152'		PUSHJ	P,TYO
  1298	001654'	200 03 0 00 002602'		MOVE RC,[POINT 6,[SIXBIT /K CORE@/]]
  1299	001655'	260 17 0 00 002404'		PUSHJ P,PNTM1		;PRINT MESSAGE
  1300
  1301	001656'	070 02 0 00 000000 	RPGFN:	CLOSE	CHAR,
  1302	001657'	603 16 0 00 000100 		TLNE IO,IORPG	;IF IN RPG MODE
  1303	001660'	055 02 0 00 003302'		RENAME CHAR,ZEROS	;THEN DELETE INPUT FILE
  1304	001661'	255 00 0 00 000000 		JFCL
  1305	001662'	071 02 0 00 000000 	RPGIGN:	RELEAS	CHAR,
  1306	001663'	070 03 0 00 000000 		CLOSE	LST,
  1307	001664'	260 17 0 00 002264'		PUSHJ	P,TSTLST	;YES, TEST FOR ERRORS
  1308	001665'	071 03 0 00 000000 		RELEAS	LST,
  1309	001666'	071 04 0 00 000000 		RELEASE SOP,0
  1310	001667'	607 16 0 00 000100 		TLNN IO,IORPG
  1311	001670'	254 00 0 00 000000'		JRST	CREF		;RETURN FOR NEXT ASSEMBLY
  1312	001671'	205 16 0 00 000100 		MOVSI IO,IORPG
  1313	001672'	260 17 0 00 002156'	RPGFN2:	PUSHJ P,TTYIN
  1314	001673'	307 07 0 00 000015 		CAIG C,15
  1315	001674'	305 07 0 00 000012 		CAIGE C,12
  1316	001675'	334 00 0 00 000000 		SKIPA
  1317	001676'	254 00 0 00 001672'		JRST RPGFN2
  1318	001677'	205 07 0 00 070000 		MOVSI C,70000
  1319	001700'	272 07 0 00 002645'		ADDM C,CTIBUF+1
  1320	001701'	350 00 0 00 002646'		AOS CTIBUF+2
  1321	001702'	254 00 0 00 000065'		JRST RETRPG
  1322
CROSS (OR CREF) - VERSION 14.3-37.0	MACRO %53B(1156)-1 17:40 25-Feb-88 Page 22
CROSS	MAC	15-Sep-76 01:35		CROSS REFERENCE GENERATION PROGRAM -AUG 21,1975

  1323	001703'	403 01 0 00 000002 	NAME1:	SETZB	ACDEV,ACFILE
  1324	001704'	403 06 0 00 000004 		SETZB	ACEXT,ACDEL
  1325	001705'	403 06 0 00 000010 		SETZB	TIO,CS
  1326
  1327	001706'	205 05 0 00 440600 	NAME3:	MOVSI	ACPNTR,(POINT 6,AC0)	;SET POINTER
  1328	001707'	634 00 0 00 000000 		TDZA	AC0,AC0		;CLEAR SYMBOL
  1329
  1330	001710'	260 17 0 00 002026'	SLASH:	PUSHJ	P,SW0
  1331	001711'	260 17 0 00 002156'	GETIOC:	PUSHJ	P,TTYIN	;GET INPUT CHARACTER
  1332	001712'	306 07 0 00 000057 		CAIN	C,"/"
  1333	001713'	254 00 0 00 001710'		JRST	SLASH
  1334	001714'	306 07 0 00 000050 		CAIN	C,"("
  1335	001715'	254 00 0 00 001771'		JRST	SWITCH
  1336	001716'	306 07 0 00 000072 		CAIN	C,":"
  1337	001717'	254 00 0 00 001736'		JRST	DEVICE
  1338	001720'	306 07 0 00 000056 		CAIN	C,"."
  1339	001721'	254 00 0 00 001737'		JRST	NAME
  1340	001722'	302 07 0 00 000137 		CAIE	C,"_"
  1341	001723'	307 07 0 00 000015 		CAIG	C,15
  1342	001724'	254 00 0 00 001742'		JRST	TERM
  1343	001725'	302 07 0 00 000054 		CAIE C,","
  1344	001726'	306 07 0 00 000033 		CAIN	C,33	;NEW ALT MODE?
  1345	001727'	254 00 0 00 001742'		JRST	TERM	;YES
  1346	001730'	306 07 0 00 000133 		CAIN	C,"["
  1347	001731'	254 00 0 00 001751'		JRST	PROGNP		;GET PROGRAMER NUMBER PAIR
  1348	001732'	275 07 0 00 000040 		SUBI	C,40		;CONVERT TO 6-BIT
  1349	001733'	603 05 0 00 770000 		TLNE	ACPNTR,770000	;HAVE WE STORED SIX BYTES?
  1350	001734'	136 07 0 00 000005 		IDPB	C,ACPNTR	;NO, STORE IT
  1351	001735'	254 00 0 00 001711'		JRST	GETIOC		;GET NEXT CHARACTER
  1352
  1353	001736'	334 01 0 00 000000 	DEVICE:	SKIPA	ACDEV,AC0	;DEVICE NAME
  1354	001737'	200 02 0 00 000000 	NAME:	MOVE	ACFILE,AC0	;FILE NAME
  1355	001740'	200 04 0 00 000007 		MOVE	ACDEL,C		;SET DELIMITER
  1356	001741'	254 00 0 00 001706'		JRST	NAME3		;GET NEXT SYMBOL
  1357
  1358	001742'	302 04 0 00 000072 	TERM:	CAIE	ACDEL,":"	;IF PREVIOUS DELIMITER
  1359	001743'	306 04 0 00 000000 		CAIN ACDEL,0		;ASSUME FILE NAME IF NOTHING ELSE
  1360	001744'	200 02 0 00 000000 		MOVE	ACFILE,AC0	;SET FILE
  1361	001745'	306 04 0 00 000056 		CAIN	ACDEL,"."	;IF PERIOD,
  1362	001746'	510 06 0 00 000000 		HLLZ	ACEXT,AC0	;SET EXTENSION
  1363	001747'	202 07 0 00 004115'		MOVEM C,SVLET#	;SAVE THIS FOR A COMMAA CHECK
  1364	001750'	263 17 0 00 000000 		POPJ	P,		;EXIT
  1365
CROSS (OR CREF) - VERSION 14.3-37.0	MACRO %53B(1156)-1 17:40 25-Feb-88 Page 23
CROSS	MAC	15-Sep-76 01:35		CROSS REFERENCE GENERATION PROGRAM -AUG 21,1975

  1366	001751'	321 17 0 00 001757'	PROGNP:	JUMPL	P,PROGN2	;ERROR IF OUTPUT
  1367	001752'	265 03 0 00 002350'	ERRCM:	JSP RC,ERRMSG
  1368	001753'	37 43 57 55 55 41 		SIXBIT /?COMMAND ERROR@/
  1369	001754'	56 44 00 45 62 62
  1370	001755'	57 62 40 00 00 00
  1371
  1372	001756'	516 03 0 00 003311'	PROGN1:	HRLZM	RC,INDIR+3	;COMMA, STORE LEFT HALF
  1373	001757'	201 03 0 00 000000 	PROGN2:	MOVEI	RC,0		;CLEAR AC
  1374	001760'	260 17 0 00 002156'	PROGN3:	PUSHJ	P,TTYIN
  1375	001761'	306 07 0 00 000054 		CAIN	C,","
  1376	001762'	254 00 0 00 001756'		JRST	PROGN1		;STORE LEFT HALF
  1377	001763'	542 03 0 00 003311'		HRRM	RC,INDIR+3	;ASSUME TERMINAL
  1378	001764'	306 07 0 00 000135 		CAIN	C,"]"
  1379	001765'	254 00 0 00 001711'		JRST	GETIOC		;YES, RETURN TO MAIN SCAN
  1380	001766'	242 03 0 00 000003 		LSH	RC,3		;SHIFT PREVIOUS RESULT
  1381	001767'	271 03 0 07 777720 		ADDI	RC,-"0"(C)	;ADD IN NEW NUMBER
  1382	001770'	254 00 0 00 001760'		JRST	PROGN3		;GET NEXT CHARACTER
  1383
CROSS (OR CREF) - VERSION 14.3-37.0	MACRO %53B(1156)-1 17:40 25-Feb-88 Page 24
CROSS	MAC	15-Sep-76 01:35		CROSS REFERENCE GENERATION PROGRAM -AUG 21,1975

  1384	001771'	260 17 0 00 002156'	SWITCH:	PUSHJ	P,TTYIN
  1385	001772'	301 07 0 00 000060 		CAIL	C,"0"
  1386	001773'	303 07 0 00 000071 		CAILE	C,"9"
  1387	001774'	254 00 0 00 002011'		JRST	SWIT1
  1388	001775'	260 17 0 00 002016'		PUSHJ	P,GETLIM
  1389	001776'	302 07 0 00 000054 		CAIE	C,","
  1390	001777'	254 00 0 00 001752'		JRST	ERRCM
  1391	002000'	202 03 0 00 003423'		MOVEM	RC,LOWLIM
  1392	002001'	260 17 0 00 002156'		PUSHJ	P,TTYIN
  1393	002002'	260 17 0 00 002016'		PUSHJ	P,GETLIM
  1394	002003'	302 07 0 00 000051 		CAIE	C,")"
  1395	002004'	254 00 0 00 001752'		JRST	ERRCM
  1396	002005'	202 03 0 00 003424'		MOVEM	RC,UPPLIM
  1397	002006'	315 03 0 00 003423'		CAMGE	RC,LOWLIM
  1398	002007'	661 16 0 00 000002 		TLO	IO,IONCRF
  1399	002010'	254 00 0 00 001711'		JRST	GETIOC
  1400
  1401	002011'	306 07 0 00 000051 	SWIT1:	CAIN	C,")"
  1402	002012'	254 00 0 00 001711'		JRST	GETIOC
  1403	002013'	260 17 0 00 002027'		PUSHJ	P,SW1
  1404	002014'	260 17 0 00 002156'		PUSHJ	P,TTYIN
  1405	002015'	254 00 0 00 002011'		JRST	SWIT1
  1406
  1407	002016'	634 03 0 00 000003 	GETLIM:	TDZA	RC,RC
  1408	002017'	260 17 0 00 002156'	GETLI1:	PUSHJ	P,TTYIN
  1409	002020'	301 07 0 00 000060 		CAIL	C,"0"
  1410	002021'	303 07 0 00 000071 		CAILE	C,"9"
  1411	002022'	263 17 0 00 000000 		POPJ	P,
  1412	002023'	221 03 0 00 000012 		IMULI	RC,^D10
  1413	002024'	271 03 0 07 777720 		ADDI	RC,-"0"(C)
  1414	002025'	254 00 0 00 002017'		JRST	GETLI1
  1415
  1416	002026'	260 17 0 00 002156'	SW0:	PUSHJ	P,TTYIN
  1417	002027'	201 07 0 07 777677 	SW1:	MOVEI	C,-"A"(C)	;CONVERT FROM ASCII TO NUMERIC
  1418	002030'	303 07 0 00 000031 		CAILE	C,"Z"-"A"	;WITHIN BOUNDS?
  1419	002031'	254 00 0 00 001752'		JRST	ERRCM		;NO, ERROR
  1420	002032'	200 03 0 00 002603'		MOVE	RC,[POINT 4,BYTAB]
  1421	002033'	133 00 0 00 000003 		IBP	RC
  1422	002034'	365 07 0 00 002033'		SOJGE	C,.-1		;MOVE TO PROPER BYTE
  1423	002035'	135 07 0 00 000003 		LDB	C,RC		;PICK UP BYTE
  1424	002036'	322 07 0 00 001752'		JUMPE	C,ERRCM		;TEST FOR VALID SWITCH
  1425	002037'	307 07 0 00 000001 		CAIG	C,SWTABT-SWTAB	;LEGAL ON SOURCE?
  1426	002040'	321 17 0 00 001752'		JUMPL	P,ERRCM	;NO, TEST FOR SOURCE
  1427	002041'	256 00 0 07 002042'		XCT	SWTAB-1(C)	;EXECUTE INSTRUCTION
  1428	002042'	263 17 0 00 000000 		POPJ	P,		;EXIT
  1429
CROSS (OR CREF) - VERSION 14.3-37.0	MACRO %53B(1156)-1 17:40 25-Feb-88 Page 25
CROSS	MAC	15-Sep-76 01:35		CROSS REFERENCE GENERATION PROGRAM -AUG 21,1975

  1430						DEFINE	SETSW		(LETTER,INSTRUCTION) <
  1431						INSTRUCTION
  1432					J=	<"LETTER"-"A">-^D9*<I=<"LETTER"-"A">/^D9>
  1433						SETCOD	\I,J>
  1434
  1435						DEFINE	SETCOD		(I,J)
  1436						<BYTAB'I=BYTAB'I!<.-SWTAB>B<4*J+3>>
  1437
  1438			000000		BYTAB0=	0			;INITIALIZE TABLE
  1439			000000		BYTAB1=	0
  1440			000000		BYTAB2=	0
  1441
  1442	002043'				SWTAB:
  1443						SETSW	Z,<TLO	TIO,TIOCLD	>^
  1444	002043'	661 06 0 00 020000 		TLO	TIO,TIOCLD
  1445	002044'				SWTABT:
  1446						SETSW	A,<ADDI	CS,1		>^
  1447	002044'	271 10 0 00 000001 		ADDI	CS,1
  1448						SETSW	B,<SUBI	CS,1		>^
  1449	002045'	275 10 0 00 000001 		SUBI	CS,1
  1450						SETSW	K,<TLZ	IO,IOSYM	>^
  1451	002046'	621 16 0 00 040000 		TLZ	IO,IOSYM
  1452						SETSW	M,<TLZ	IO,IOMAC	>^
  1453	002047'	621 16 0 00 100000 		TLZ	IO,IOMAC
  1454						SETSW	O,<TLO	IO,IOOP		>^
  1455	002050'	661 16 0 00 200000 		TLO	IO,IOOP
  1456						SETSW	S,<TLO	IO,IOLST	>^
  1457	002051'	661 16 0 00 000001 		TLO	IO,IOLST
  1458						SETSW	T,<TLO	TIO,TIOLE	>^
  1459	002052'	661 06 0 00 002000 		TLO	TIO,TIOLE
  1460						SETSW	W,<TLO	TIO,TIORW	>^
  1461	002053'	661 06 0 00 001000 		TLO	TIO,TIORW
  1462						SETSW C,<TRO IO,IOCMB>^
  1463	002054'	660 16 0 00 000001 		TRO IO,IOCMB
  1464						SETSW L,<TRO IO,IOJLST>^
  1465	002055'	660 16 0 00 000002 		TRO IO,IOJLST
  1466						SETSW Q,<TRO IO,IOSOUT>^
  1467	002056'	660 16 0 00 000004 		TRO IO,IOSOUT
  1468
  1469						SETSW R,<SETOM FIRSTL>^
  1470	002057'	476 00 0 00 003422'		SETOM FIRSTL
  1471
  1472	002060'				BYTAB:
  1473	002060'	107200	000000			+BYTAB0
  1474	002061'	011324	060315			+BYTAB1
  1475	002062'	360002	200020			+BYTAB2
  1476
CROSS (OR CREF) - VERSION 14.3-37.0	MACRO %53B(1156)-1 17:40 25-Feb-88 Page 26
CROSS	MAC	15-Sep-76 01:35		CROSS REFERENCE GENERATION PROGRAM -AUG 21,1975

  1477	002063'	336 00 0 00 000001 	INSETF:	SKIPN	ACDEV
  1478	002064'	200 01 0 00 003301'		MOVE	ACDEV,INDEV	;USE LAST DEVICE
  1479	002065'	202 01 0 00 003301'		MOVEM	ACDEV,INDEV	;SAVE DEVICE FOR ERR MESSAGES
  1480	002066'	336 00 0 00 000002 		SKIPN	ACFILE
  1481	002067'	200 02 0 00 002604'		MOVE	ACFILE,[SIXBIT /CREF/]
  1482	002070'	202 02 0 00 003306'		MOVEM	ACFILE,INDIR	;STORE FILE IN DIRECTORY
  1483
  1484	002071'	201 00 0 00 000000 		MOVEI ACDEV-1,A		;INIT DEVICE IN "A" MODE
  1485	002072'	201 02 0 00 002647'		MOVEI ACDEV+1,INBUF	;SET UP ARG FOR BUFFER HEADER
  1486	002073'	050 02 0 00 000000 		OPEN CHAR,ACDEV-1	;OPEN CHANNEL
  1487	002074'	254 00 0 00 002312'		 JRST ERRAVI		;FAILED
  1488
  1489	002075'	623 06 0 00 001000 		TLZE	TIO,TIORW	;REWIND?
  1490	002076'	072 02 0 00 000001 		MTAPE	CHAR,1		;YES
  1491	002077'	325 10 0 00 002106'		JUMPGE	CS,INSET2
  1492	002100'	072 02 0 00 000017 		MTAPE	CHAR,17
  1493	002101'	072 02 0 00 000017 		MTAPE	CHAR,17
  1494	002102'	341 10 0 00 002101'		AOJL	CS,.-1
  1495	002103'	072 02 0 00 000000 		WAIT	CHAR,
  1496	002104'	061 02 0 00 004000 		STATO	CHAR,1B24
  1497	002105'	072 02 0 00 000016 		MTAPE	CHAR,16
  1498	002106'	365 10 0 00 002105'	INSET2:	SOJGE	CS,.-1
  1499
  1500	002107'	201 01 0 00 002663'	INSET3:	MOVEI ACDEV,INPT	;SET UP INPUT BUFFER POINTER
  1501	002110'	250 01 0 00 000236*		EXCH ACDEV,JOBFF
  1502	002111'	064 02 0 00 000002 		INBUF	CHAR,2
  1503	002112'	202 01 0 00 002110*		MOVEM ACDEV,JOBFF	;RESTORE JOBFF
  1504	002113'	326 06 0 00 002121'		JUMPN	ACEXT,INSET4	;TAKE USER'S EXTENSION IF NON-BLANK
  1505	002114'	200 06 0 00 002605'		MOVE ACEXT,[SIXBIT /CRFLST/]	;TRY CRF FIRST, THEN LST
  1506	002115'	265 01 0 00 002122'		JSP ACDEV,INSETI		;LOOKUP FILE (DON'T RETURN IF FOUND)
  1507	002116'	326 06 0 00 002115'		JUMPN ACEXT,.-1			;KEEP LOOKING UNTIL EXT'S GONE
  1508	002117'	525 06 0 00 645560 		HRLOI ACEXT,(SIXBIT /TMP/)	;FINALLY TRY TMP THEN STOP
  1509	002120'	265 01 0 00 002122'		JSP ACDEV,INSETI
  1510	002121'	201 01 0 00 002331'	INSET4:	MOVEI ACDEV,ERRFND		;RETURN IS CONTINUE OR JRST ERRFND
  1511
  1512	002122'	502 06 0 00 003307'	INSETI:	HLLM	ACEXT,INDIR+1	;STORE EXTENSION
  1513	002123'	242 06 0 00 000022 		LSH	ACEXT,^D18	;SLIDE NEXT EXT INTO PLACE
  1514	002124'	076 02 0 00 003306'		LOOKUP	CHAR,INDIR
  1515	002125'	254 00 0 01 000000 		JRST (ACDEV)		;NOT FOUND
  1516
  1517									;FOUND
  1518	002126'	336 00 0 00 003422'		SKIPN FIRSTL		;HAS INITIAL PRINTING LINE BEEN REQUESTED?
  1519	002127'	254 00 0 00 002146'		JRST LSTS7		;NO
  1520	002130'	603 16 0 00 000100 		TLNE IO,IORPG
  1521	002131'	254 00 0 00 002135'		JRST LSTS4		;NO MESSAGE OUTPUT FOR RPG SYSTEM
  1522	002132'	201 01 0 00 002606'		MOVEI TEMP,[ASCIZ /Restart cross reference at CREF line no. /]
  1523	002133'	047 01 0 00 000003 		DDTOUT TEMP,		;TYPE THE ANSWER
  1524	002134'	066 01 0 00 000000 		INPUT CTLI,		;INPUT THE ANSWER
  1525	002135'	201 00 0 00 000000 	LSTS4:	MOVEI AC0,0		;INIT DECIMAL NUMBER ASSEMBLER
  1526	002136'	260 17 0 00 002156'	LSTS5:	PUSHJ P,TTYIN	;GET CHARACTER
  1527	002137'	301 07 0 00 000060 		CAIL C,"0"	;IS IT A DIGIT?
  1528	002140'	303 07 0 00 000071 		CAILE C,"9"
  1529	002141'	254 00 0 00 002145'		JRST LSTS6	;NO
  1530	002142'	221 00 0 00 000012 		IMULI AC0,12	;YES
  1531	002143'	271 00 0 07 777720 		ADDI AC0,-"0"(C)
CROSS (OR CREF) - VERSION 14.3-37.0	MACRO %53B(1156)-1 17:40 25-Feb-88 Page 26-1
CROSS	MAC	15-Sep-76 01:35		CROSS REFERENCE GENERATION PROGRAM -AUG 21,1975

  1532	002144'	254 00 0 00 002136'		JRST LSTS5
  1533
  1534	002145'	202 00 0 00 003422'	LSTS6:	MOVEM AC0,FIRSTL	;SAVE DECIMAL NUMBER
  1535	002146'	263 17 0 00 000000 	LSTS7:	POPJ P,		;TO HERE IF NO INITIAL LINE SPECIFIED
  1536
CROSS (OR CREF) - VERSION 14.3-37.0	MACRO %53B(1156)-1 17:40 25-Feb-88 Page 27
CROSS	MAC	15-Sep-76 01:35		CROSS REFERENCE GENERATION PROGRAM -AUG 21,1975

  1537
  1538	002147'	201 07 0 00 000015 	CRLF:	MOVEI	C,15		;OUTPUT CARRIAGE RETURN
  1539	002150'	260 17 0 00 002152'		PUSHJ	P,TYO
  1540	002151'	201 07 0 00 000012 		MOVEI	C,12		;AND LINE FEED
  1541
  1542	002152'	242 07 0 00 000035 	TYO:	LSH C,^D29		;TELETYPE CHARACTER OUTPUT
  1543									;GET CHAR LEFT JUSTIFIED
  1544	002153'	541 07 0 00 000007 		HRRI C,C		;SET UP ADR OF CHARACTER
  1545	002154'	047 07 0 00 000003 		DDTOUT C,		;OUTPUT (NULL IS THE 2ND CHAR)
  1546	002155'	263 17 0 00 000000 		POPJ P,
  1547
CROSS (OR CREF) - VERSION 14.3-37.0	MACRO %53B(1156)-1 17:40 25-Feb-88 Page 28
CROSS	MAC	15-Sep-76 01:35		CROSS REFERENCE GENERATION PROGRAM -AUG 21,1975

  1548	002156'				TTYIN:		;COMMAND CHARACTER INPUT SUBROUTINE
  1549	002156'	377 00 0 00 002646'	RPGIN:	SOSG CTIBUF+2
  1550	002157'	254 00 0 00 002205'		JRST CKRPGI
  1551	002160'	133 00 0 00 002645'	RPGIN1:	IBP CTIBUF+1
  1552	002161'	200 07 1 00 002645'		MOVE C,@CTIBUF+1
  1553	002162'	606 07 0 00 000001 		TRNN C,1
  1554	002163'	254 00 0 00 002170'		JRST RPGIN2
  1555	002164'	350 00 0 00 002645'		AOS CTIBUF+1
  1556	002165'	211 07 0 00 000005 		MOVNI C,5
  1557	002166'	272 07 0 00 002646'		ADDM C,CTIBUF+2
  1558	002167'	254 00 0 00 002156'		JRST RPGIN
  1559
  1560	002170'	135 07 0 00 002645'	RPGIN2:	LDB C,CTIBUF+1
  1561	002171'	322 07 0 00 002156'		JUMPE C,RPGIN
  1562	002172'	302 07 0 00 000040 		CAIE	C," "		;SKIP BLANKS
  1563	002173'	306 07 0 00 000011 		CAIN	C,"	"
  1564	002174'	254 00 0 00 002156'		JRST	TTYIN
  1565	002175'	302 07 0 00 000175 		CAIE	C,175
  1566	002176'	306 07 0 00 000176 		CAIN	C,176
  1567	002177'	201 07 0 00 000033 		MOVEI	C,33		;CHANGE ALL ALT MODES TO 033
  1568	002200'	306 07 0 00 000032 		CAIN	C,32
  1569	002201'	254 00 0 00 002156'		JRST	TTYIN		;IGNORE ^Z (EOF)
  1570	002202'	301 07 0 00 000140 		CAIL	C,140
  1571	002203'	620 07 0 00 000040 		TRZ	C,40		;CHANGE LOWER CASE TO UPPER CASE
  1572	002204'	263 17 0 00 000000 		POPJ	P,		;NO, EXIT
  1573
  1574	002205'				CKRPGI:
  1575	002205'	332 00 0 00 002636'	IFN TEMPC,<	SKIPE TMPFLG	;IS TMPCOR UUO IN ACTION
  1576	002206'	254 00 0 00 002222'		JRST TMPDON		;YES, EXIT>
  1577	002207'	056 01 0 00 000000 		IN CTLI,0
  1578	002210'	254 00 0 00 002160'		JRST RPGIN1
  1579	002211'	061 01 0 00 740000 		STATO CTLI,740000
  1580	002212'	254 00 0 00 002231'		JRST RPGCK2
  1581	002213'	265 03 0 00 002350'		JSP RC,ERRMSG
  1582	002214'	37 44 41 64 41 00 		SIXBIT /?DATA ERROR READING COMMAND FILE@/
  1583	002215'	45 62 62 57 62 00
  1584	002216'	62 45 41 44 51 56
  1585	002217'	47 00 43 57 55 55
  1586	002220'	41 56 44 00 46 51
  1587	002221'	54 45 40 00 00 00
  1588					IFN TEMPC,<
  1589	002222'	200 00 0 00 002617'	TMPDON:	MOVE AC0,[XWD 2,TEMP]
  1590	002223'	205 01 0 00 436245 		MOVSI TEMP,(SIXBIT /CRE/)
  1591	002224'	201 02 0 00 000000 		MOVEI TEMP1,0
  1592	002225'	047 00 0 00 000044 		CALLI AC0,TMPCOR	;DELETE TMPCOR FILE "CRE"
  1593	002226'	255 00 0 00 000000 		JFCL			;FAILED, SO WHO CARES>
  1594	002227'	047 01 0 00 000012 	LEAVE:	CALLI 1,12		;EXIT
  1595	002230'	254 00 0 00 000000'		JRST CREF
  1596
  1597	002231'	607 16 0 00 000100 	RPGCK2:	TLNN IO,IORPG		;IN CCL MODE?
  1598	002232'	254 00 0 00 000000'		JRST CREF		;NO, START OVER
  1599	002233'	055 01 0 00 003302'		RENAME CTLI,ZEROS
  1600	002234'	255 00 0 00 000000 		JFCL
  1601	002235'	254 00 0 00 002227'		JRST LEAVE
  1602
CROSS (OR CREF) - VERSION 14.3-37.0	MACRO %53B(1156)-1 17:40 25-Feb-88 Page 29
CROSS	MAC	15-Sep-76 01:35		CROSS REFERENCE GENERATION PROGRAM -AUG 21,1975

  1603					; HERE TO READ A CHAR FROM CURRENT CREF FILE
  1604					; READ - READS ONE CHARACTER INTO 'C' IGNORING NULLS (0)
  1605					; READXX - READS ONE CHARACTER INTO 'C' NOT IGNORING NULLS
  1606					;	(PRIMARILY FOR USE WITH CODE 110)
  1607	002236'	402 00 0 00 002643'	READXX:	SETZM	%IGNULL		;SET NOT TO IGNORE NULL
  1608	002237'	254 00 0 00 002241'		JRST	READ0		;AND GO TO MAIN ROUTINE
  1609	002240'	476 00 0 00 002643'	READ:	SETOM	%IGNULL		;IGNORE NULLS
  1610	002241'	377 00 0 00 002651'	READ0:	SOSG	INBUF+2		;BUFFER EMPTY?
  1611	002242'	254 00 0 00 002247'		JRST	READ3		;YES
  1612	002243'	134 07 0 00 002650'	READ1:	ILDB	C,INBUF+1	;PLACE CHARACTER IN C
  1613	002244'	332 00 0 00 002643'		SKIPE	%IGNULL		;SKIP IF NOT IGNORING NULLS
  1614	002245'	322 07 0 00 002241'		JUMPE C,READ0		;IF A NULL, LOOP TO GET NEXT CHAR
  1615	002246'	263 17 0 00 000000 		POPJ	P,
  1616
  1617	002247'	066 02 0 00 000000 	READ3:	INPUT	CHAR,0		;GET NEXT BUFFER
  1618	002250'	061 02 0 00 762000 		STATO	CHAR,762000	;ERROR?
  1619	002251'	254 00 0 00 002243'		JRST	READ1		;NO, GET CHARACTER
  1620	002252'	661 16 0 00 000400 		TLO IO,IOEOF	;FLAG EOF SEEN
  1621	002253'	061 02 0 00 742000 		STATO	CHAR,742000
  1622	002254'	254 00 0 00 002274'		JRST	READ4
  1623
  1624	002255'	201 10 0 00 003301'		MOVEI CS,INDEV
  1625	002256'	265 03 0 00 002352'		JSP RC,DVFNEX
  1626	002257'	37 51 56 60 65 64 		SIXBIT /?INPUT DATA ERROR, @/
  1627	002260'	00 44 41 64 41 00
  1628	002261'	45 62 62 57 62 14
  1629	002262'	00 40 00 00 00 00
  1630
  1631	002263'	067 03 0 00 000000 	DMPLST:	OUTPUT	LST,0		;OUTPUT BUFFER
  1632	002264'	061 03 0 00 740000 	TSTLST:	STATO	LST,740000	;ANY ERRORS?
  1633	002265'	263 17 0 00 000000 		POPJ	P,		;NO, EXIT
  1634
  1635	002266'	201 10 0 00 003417'		MOVEI CS,LSTDEV
  1636	002267'	265 03 0 00 002352'		JSP RC,DVFNEX
  1637	002270'	37 57 65 64 60 65 		SIXBIT /?OUTPUT DATA ERROR, @/
  1638	002271'	64 00 44 41 64 41
  1639	002272'	00 45 62 62 57 62
  1640	002273'	14 00 40 00 00 00
  1641
  1642	002274'	200 07 0 00 004115'	READ4:	MOVE C,SVLET	;SEE WHAT LETTER LAST ONE ENDED WITH
  1643	002275'	302 07 0 00 000054 		CAIE C,","	;IF NOT COMMA
  1644	002276'	254 00 0 00 000372'		JRST R0		;PRINT CREF
  1645	002277'	071 02 0 00 000000 		RELEASE CHAR,0	;LET GO OF INPUT
  1646	002300'	621 16 0 00 000400 		TLZ IO,IOEOF	;NOT END OF FILE AFTER ALL
  1647	002301'	260 17 0 00 001703'		PUSHJ P,NAME1	;GET A NAME
  1648	002302'	260 17 0 00 002063'		PUSHJ P,INSETF	;AND SET UP INPUT
  1649	002303'	254 00 0 00 002241'		JRST READ0	;READ FIRST CHR
  1650
  1651					; SUBROUTINE - OUTNWT
  1652					; C = A 7-BIT ASCII CHARACTER TO BE OUTPUT TO TERMINAL
  1653					; USES AUXCAL UUO TO OUTPUT CHARACTER - IF USER'S TERMINAL
  1654					; IS DETACHED, CHARACTERS ARE LOST
  1655					; NORMALLY USED ONLY IN PRINTING NAMES OF FILES BEING PROCESSED
  1656	002304'	261 17 0 00 000001 	OUTNWT:	PUSH	P,TEMP		;ONE REGISTER NEEDED
  1657	002305'	561 01 0 00 000003 		HRROI	TEMP,3		;AUXCAL FCN:3 - IONEOU
CROSS (OR CREF) - VERSION 14.3-37.0	MACRO %53B(1156)-1 17:40 25-Feb-88 Page 29-1
CROSS	MAC	15-Sep-76 01:35		CROSS REFERENCE GENERATION PROGRAM -AUG 21,1975

  1658	002306'	042 01 0 00 000007 		AUXCAL	TEMP,C		;OUTPUT CHARACTER
  1659	002307'	255 00 0 00 000000 		 JFCL
  1660	002310'	262 17 0 00 000001 		POP	P,TEMP		;RESTORE REGISTER
  1661	002311'	263 17 0 00 000000 		POPJ	P,		;RETURN****
  1662
CROSS (OR CREF) - VERSION 14.3-37.0	MACRO %53B(1156)-1 17:40 25-Feb-88 Page 30
CROSS	MAC	15-Sep-76 01:35		CROSS REFERENCE GENERATION PROGRAM -AUG 21,1975

  1663	002312'	603 16 0 00 000100 	ERRAVI:	TLNE IO,IORPG	;IF IN RPG MODE
  1664	002313'	254 00 0 00 001662'		JRST RPGIGN	;IGNORE FACT THAT FILE WAS NOT THERE
  1665	002314'	334 10 0 00 002620'		SKIPA CS,[INDEV]	;INPUT DEVICE INIT FAILURE
  1666	002315'	201 10 0 00 003417'	ERRAVL:	MOVEI CS,LSTDEV		;LISTING DEVICE INIT FAILURE
  1667	002316'	265 03 0 00 002352'		JSP RC,DVFNEX
  1668	002317'	37 44 45 66 51 43 		SIXBIT /?DEVICE NOT AVAILABLE, @/
  1669	002320'	45 00 56 57 64 00
  1670	002321'	41 66 41 51 54 41
  1671	002322'	42 54 45 14 00 40
  1672
  1673
  1674	002323'	201 10 0 00 003417'	ERRENT:	MOVEI CS,LSTDEV
  1675	002324'	265 03 0 00 002352'		JSP RC,DVFNEX
  1676	002325'	37 43 41 56 56 57 		SIXBIT /?CANNOT ENTER FILE @/
  1677	002326'	64 00 45 56 64 45
  1678	002327'	62 00 46 51 54 45
  1679	002330'	00 40 00 00 00 00
  1680
  1681	002331'	603 16 0 00 000100 	ERRFND:	TLNE IO,IORPG	;IF IN RPG
  1682	002332'	254 00 0 00 001662'		JRST RPGIGN	;IGNORE NOT THERE
  1683	002333'	201 10 0 00 003301'		MOVEI CS,INDEV
  1684	002334'	265 03 0 00 002352'		JSP RC,DVFNEX
  1685	002335'	37 43 41 56 56 57 		SIXBIT /?CANNOT FIND FILE @/
  1686	002336'	64 00 46 51 56 44
  1687	002337'	00 46 51 54 45 00
  1688	002340'	40 00 00 00 00 00
  1689
  1690	002341'	265 03 0 00 002350'	ERRCOR:	JSP RC,ERRMSG
  1691	002342'	37 51 56 63 65 46 		SIXBIT /?INSUFFICIENT MEMORY AVAILABLE@/
  1692	002343'	46 51 43 51 45 56
  1693	002344'	64 00 55 45 55 57
  1694	002345'	62 71 00 41 66 41
  1695	002346'	51 54 41 42 54 45
  1696	002347'	40 00 00 00 00 00
  1697
  1698
CROSS (OR CREF) - VERSION 14.3-37.0	MACRO %53B(1156)-1 17:40 25-Feb-88 Page 31
CROSS	MAC	15-Sep-76 01:35		CROSS REFERENCE GENERATION PROGRAM -AUG 21,1975

  1699	002350'	260 17 0 00 002402'	ERRMSG:	PUSHJ P,PNTMSG		;FOR SIMPLE ERROR MESSAGES
  1700	002351'	254 00 0 00 002370'		JRST ERRFIN
  1701
  1702	002352'	260 17 0 00 002402'	DVFNEX:	PUSHJ P,PNTMSG		;PRINT MESSAGE DEV:FILENAME.EXT
  1703	002353'	260 17 0 00 002372'		PUSHJ P,PNTSIX		;PRINT DEVICE
  1704	002354'	201 07 0 00 000072 		MOVEI C,":"
  1705	002355'	260 17 0 00 002152'		PUSHJ P,TYO		;PRINT COLON
  1706	002356'	271 10 0 00 000001 		ADDI CS,1		;ADVANCE POINTER TO FILENAME
  1707	002357'	336 00 0 10 000000 		SKIPN (CS)		;IS FILENAME 0?
  1708	002360'	254 00 0 00 002370'		JRST ERRFIN		;YES, NO FILENAME
  1709	002361'	260 17 0 00 002372'		PUSHJ P,PNTSIX		;NO, PRINT FILENAME
  1710	002362'	271 10 0 00 000001 		ADDI CS,1		;ADVANCE POINTER TO EXTENSION
  1711	002363'	513 07 0 10 000000 		HLLZS C,(CS)		;ZERO OUT OTHER HALF. EXTENSION=0?
  1712	002364'	322 07 0 00 002370'		JUMPE C,ERRFIN		;EXTENSION 0?
  1713	002365'	201 07 0 00 000056 		MOVEI C,"."		;NO
  1714	002366'	260 17 0 00 002152'		PUSHJ P,TYO		;PRINT DOT
  1715	002367'	260 17 0 00 002372'		PUSHJ P,PNTSIX		;PRINT EXTENSION
  1716
  1717	002370'	260 17 0 00 002147'	ERRFIN:	PUSHJ P,CRLF
  1718	002371'	254 00 0 00 000000'		JRST CREF		;START CREF OVER
  1719
  1720	002372'	505 10 0 00 440600 	PNTSIX:	HRLI CS,(POINT 6,0)	;PRINT 1 WORD OF SIXBIT
  1721	002373'	607 10 0 00 770000 	PNTSX1:	TLNN CS,770000		;NEXT ILDB GO OVER WORD BOUNDARY?
  1722	002374'	263 17 0 00 000000 		POPJ P,		;YES, FINISHED
  1723	002375'	134 07 0 00 000010 		ILDB C,CS
  1724	002376'	322 07 0 00 002374'		JUMPE C,.-2		;STOP AT A 0
  1725	002377'	271 07 0 00 000040 		ADDI C,40		;CONVERT TO ASCII
  1726	002400'	260 17 0 00 002152'		PUSHJ P,TYO
  1727	002401'	254 00 0 00 002373'		JRST PNTSX1
  1728
  1729	002402'	260 17 0 00 002147'	PNTMSG:	PUSHJ P,CRLF		;PRINT SIXBIT MESSAGE
  1730	002403'	505 03 0 00 440600 		HRLI RC,(POINT 6,0)
  1731	002404'	134 07 0 00 000003 	PNTM1:	ILDB C,RC
  1732	002405'	306 07 0 00 000040 		CAIN C,40		;STOP AT @
  1733	002406'	263 17 0 00 000000 		POPJ P,
  1734	002407'	271 07 0 00 000040 		ADDI C,40		;CONVERT TO ASCII
  1735	002410'	260 17 0 00 002152'		PUSHJ P,TYO
  1736	002411'	254 00 0 00 002404'		JRST PNTM1
  1737
  1738					;;WHEN INIT FAILURE ON LISTING DEVICE,
  1739					;;IF LPT LET'S WAY 'WAITING' AND LET'S WAIT !
  1740					;;
  1741	002412'	200 10 0 00 003417'	WATLPT:	MOVE	CS,LSTDEV	;;GET LISTING DEVICE NAME
  1742	002413'	312 10 0 00 002621'		CAME	CS,[SIXBIT/LPT   /];;IS IT LPT??
  1743						JRST	[POP P,CS	;;NO--CLEAR PDL
  1744	002414'	254 00 0 00 002622'			JRST ERRAVL]	;;AND COMPLAIN
  1745	002415'	051 03 0 00 002624'		OUTSTR	[ASCIZ /LPT Busy--waiting/]
  1746
  1747					;;NOW WAIT
  1748	002416'	201 10 0 00 000036 	WAITL:	MOVEI	CS,^D30		;SLEEP FOR 30 SECONDS
  1749	002417'	047 10 0 00 000031 		SLEEP	CS,		;;AS SO
  1750	002420'	050 03 0 00 000012 		OPEN	LST,FLAG	;;RETRY OPENING OUTPUT DEVICE
  1751	002421'	254 00 0 00 002416'		JRST	WAITL		;;CANT OPEN--KEEP LOOPING
  1752						OUTSTR	[ASCIZ /
  1753	002422'	051 03 0 00 002630'	/]				;;C.R. INDICATES LISTING STARTED
CROSS (OR CREF) - VERSION 14.3-37.0	MACRO %53B(1156)-1 17:40 25-Feb-88 Page 31-1
CROSS	MAC	15-Sep-76 01:35		CROSS REFERENCE GENERATION PROGRAM -AUG 21,1975

  1754	002423'	263 17 0 00 000000 		POPJ	P,		;;RETURN AFTER OPEN
  1755
CROSS (OR CREF) - VERSION 14.3-37.0	MACRO %53B(1156)-1 17:40 25-Feb-88 Page 32
CROSS	MAC	15-Sep-76 01:35		CROSS REFERENCE GENERATION PROGRAM -AUG 21,1975

  1756						XLIST
  1757						LIST
  1758
CROSS (OR CREF) - VERSION 14.3-37.0	MACRO %53B(1156)-1 17:40 25-Feb-88 Page 33
CROSS	MAC	15-Sep-76 01:35		CROSS REFERENCE GENERATION PROGRAM -AUG 21,1975

  1759
  1760	002634'				SVJFF:	BLOCK	1
  1761	002635'				CTIDEV:	BLOCK	1
  1762	002636'				TMPFLG:	BLOCK	1
  1763	002637'				CHOLD:	BLOCK	1
  1764	002640'				LINEX:	BLOCK	1
  1765	002641'				SBTBUF:	BLOCK	1
  1766	002642'				LN2COM:	BLOCK	1
  1767	002643'				%IGNULL:BLOCK	1
  1768
  1769	002644'				CTIBUF:	BLOCK	3
  1770	002647'				INBUF:	BLOCK	3
  1771	002652'				LSTBUF:	BLOCK	3
  1772	002655'				CTIDIR:	BLOCK	4
  1773	002661'				TMPFIL:	BLOCK	2
  1774	002663'				INPT:	BLOCK	203*2+1
  1775	003272'				SONAM:	BLOCK	4
  1776	003276'				SOBUF:	BLOCK	3
  1777
  1778	003301'				INDEV:	BLOCK	1
  1779			003301'		STCLR=INDEV
  1780
  1781	003302'				ZEROS:	BLOCK	4
  1782	003306'				INDIR:	BLOCK	4
  1783	003312'				LSTDIR:	BLOCK	4
  1784
  1785	003316'				PPSET:	BLOCK	PDL
  1786	003346'				TIBUF:	BLOCK	^D205/5
  1787
  1788	003417'				LSTDEV:	BLOCK	1
  1789	003420'				LPP:	BLOCK	1
  1790	003421'				PPTEMP:	BLOCK	1
  1791	003422'				FIRSTL:	BLOCK	1
  1792	003423'				LOWLIM:	BLOCK	1
  1793	003424'				UPPLIM:	BLOCK	1
  1794	003425'				LEVEL:	BLOCK	1
  1795	003426'				SVLAB:	BLOCK	1
  1796	003427'				BLKST:	BLOCK	1
  1797	003430'				FSTPNT:	BLOCK	1
  1798
  1799	003431'				OPTBL:	BLOCK	HASH
  1800	003576'				SYMTBL:	BLOCK	HASH
  1801	003743'				MACTBL:	BLOCK	HASH
  1802
  1803	004110'				BLKND:	BLOCK	1
  1804			004110'		ENDCLR=BLKND
  1805
  1806			000000'		END CREF

NO ERRORS DETECTED

PROGRAM BREAK IS 004117
CPU TIME USED 07:30.562

12P CORE USED
CROSS (OR CREF) - VERSION 14.3-37.0	MACRO %53B(1156)-1 17:40 25-Feb-88 Page S-1
CROSS	MAC	15-Sep-76 01:35		SYMBOL TABLE

A		000000	spd	DEFS1		001074'		INDEV		003301'		LNKOUT		000636'
AC0		000000	spd	DEFSYM		001061'		INDIR		003306'		LOWLIM		003423'
ACDEL		000004	spd	DEVCHR	047000	000004		INPT		002663'		LPP		003420'
ACDEV		000001	spd	DEVICE		001736'		INSET		000152'		LST		000003	spd
ACEXT		000006	spd	DFLAB		001052'		INSET1		000153'		LSTBUF		002652'
ACFILE		000002	spd	DFLABD		001051'		INSET2		002106'		LSTDEV		003417'
ACPNTR		000005	spd	DLAB		001223'		INSET3		002107'		LSTDIR		003312'
AL		000001	spd	DLBEXT		001222'		INSET4		002121'		LSTS2		000124'
BBEG		001225'		DMPLST		002263'		INSETF		002063'		LSTS4		002135'
BBEND		001231'		DOBLK		000623'		INSETI		002122'		LSTS5		002136'
BLKND		004110'		DTAB		001012'		INSRT		000537'		LSTS6		002145'
BLKP1		001276'		DVFNEX		002352'		IO		000016	spd	LSTS7		002146'
BLKP2		001306'		EATLIN		000776'		IOCMB		000001	spd	LSTSE3		000147'
BLKP3		001270'		ENDCLR		004110'		IODEF		000020	spd	LSTSET		000106'
BLKPRN		001257'		ENDRT		001606'		IODF2		020000	spd	M1		000252'
BLKST		003427'		ENDTL		001046'		IOENDL		000040	spd	M2		000254'
BYTAB		002060'		ERRAVI		002312'		IOEOF		000400	spd	M2A		000257'
BYTAB0	107200	000000		ERRAVL		002315'		IOERR		000010	spd	M2B		000307'
BYTAB1	011324	060315		ERRCM		001752'		IOEXT		000020	spd	M2BINC		000313'
BYTAB2	360002	200020		ERRCOR		002341'		IOFAIL		000010	spd	M2C		000301'
BYTEM		000006	spd	ERRENT		002323'		IOJLST		000002	spd	M3		000323'
BYTEX		000005	spd	ERRFIN		002370'		IOLST		000001	spd	M4		000324'
C		000007	spd	ERRFND		002331'		IOMAC		100000	spd	M5		000337'
CHAR		000002	spd	ERRMSG		002350'		IONCRF		000002	spd	M5A		000334'
CHDOT		000500'		ERROR		000343'		IONLZ		001000	spd	M6		000347'
CHLP		000466'		EXIT	047000	000012		IOOP		200000	spd	MACTBL		003743'
CHOK		000505'		FAILM		000722'		IOPAGE		000004	spd	MOVS1		001206'
CHOLD		002637'		FCKLF		000365'		IORPG		000100	spd	MOVSYM		001175'
CKEQ		000526'		FINI0		000423'		IOSAME		010000	spd	MTAB		000360'
CKEQ2		000565'		FINIS		001634'		IOSOUT		000004	spd	NAME		001737'
CKRPGI		002205'		FINIS1		001652'		IOSUBT		000040	spd	NAME1		001703'
CMB1		001122'		FINOUP		000677'		IOSYM		040000	spd	NAME3		001706'
CMB2		001134'		FIRSTL		003422'		IOTABS		000200	spd	NOASNM		000164'
CMB3		001170'		FLAG		000012	spd	IOTB2		002000	spd	NOBLK		000631'
CMBOK		001153'		FM2		000726'		IOTTY		004000	spd	NOBLK2		000633'
CNVR1		000427'		FM4		000713'		ISBLK		000622'		NOMAC		000414'
CNVRT		000426'		FM6		000742'		J		000010		NOSO		000675'
COMBG		001236'		FND		000575'		JOBDDT		000234'	ext	NOSOUT		000203'
COMBIN		001114'		FREAD		000710'		JOBFF		002112'	ext	NOSPLP		000215'
CORE	047000	000011		FREE		000013	spd	JOBREL		001626'	ext	NOSPO		000205'
CPOPJ		000602'		FSTPNT		003430'		JOBSYM		001627'	ext	NOSPO0		000222'
CREF		000000'	int	GETIOC		001711'		JOBVER		000137		NOSPO1		000226'
CREF1		000052'		GETLI1		002017'		L1		000520'		NOSYM		000405'
CRLF		002147'		GETLIM		002016'		L2		000513'		NOTINF		000744'
CS		000010	spd	GETV10		001506'		L3		000516'		NTFND		001347'
CTIBUF		002644'		GETV12		001513'		L4		000524'		NTFND1		001355'
CTIDEV		002635'		GETV20		001501'		LAST		000652'		NXTENT		000543'
CTIDIR		002655'		GETVAL		001473'		LEAVE		002227'		NXTSY		000550'
CTLI		000001	spd	GORPGO		000065'		LEVEL		003425'		OPTBL		003431'
DDTOUT	047000	000003		HASH		000145	spd	LINE		000011	spd	OUTAS1		000442'
DECREL		000000	spd	HOUT		000704'		LINEX		002640'		OUTASC		000441'
DECSPC		000037	spd	HWD		004111'		LINKL		004112'		OUTNWT		002304'
DEFBYP		001112'		I		000001		LINLP		000642'		OUTP		000600'
DEFFD		001101'		IECERR		000756'		LINOUT		001530'		OUTP1		000641'
DEFMAC		001060'		INBUF		002647'		LN2COM		002642'		OUTP2		000662'
CROSS (OR CREF) - VERSION 14.3-37.0	MACRO %53B(1156)-1 17:40 25-Feb-88 Page S-2
CROSS	MAC	15-Sep-76 01:35		SYMBOL TABLE

OUTPA		000605'		STV10A		001423'		WPLTTY		000010	spd
OUTSTR	051140	000000		STV10B		001420'		WRITE		001565'
OUTTL		001576'		STV10C		001427'		WRITE0		001542'
OUTTL1		001600'		STV10D		001432'		XCEED		001607'
OUTTLX		001577'		STV12		001442'		XCEED1		001617'
OUTWD		000454'		STV14		001446'		XCEED2		001614'
P		000017	spd	STV16		001452'		ZEROS		003302'
PDL		000030	spd	STV20		001457'		%EOF		000037	spd
PNAME		004113'		STV22		001470'		%IGNUL		002643'
PNTM1		002404'		SVJFF		002634'		%LINE		000035	spd
PNTMSG		002402'		SVLAB		003426'		%MAC		000034	spd
PNTSIX		002372'		SVLET		004115'		%OP		000033	spd
PNTSX1		002373'		SVPTR		004116'		%SYM		000036	spd
POPOUT		001472'		SW0		002026'		.LPP		000070	spd
PPSAV		004114'		SW1		002027'
PPSET		003316'		SWIT1		002011'
PPTEMP		003421'		SWITCH		001771'
PROGN1		001756'		SWTAB		002043'
PROGN2		001757'		SWTABT		002044'
PROGN3		001760'		SX		000004	spd
PROGNP		001751'		SYMTBL		003576'
R0		000372'		TABOUT		001524'
R0A		000370'		TEMP		000001	spd
R3		000663'		TEMP1		000002	spd
RC		000003	spd	TEMPC		000001	spd
RDTTL		001032'		TEND		000752'
READ		002240'		TERM		001742'
READ0		002241'		TIBUF		003346'
READ1		002243'		TIO		000006	spd
READ3		002247'		TIOCLD		020000	spd
READ4		002274'		TIOLE		002000	spd
READXX		002236'		TIORW		001000	spd
RECYCL		000230'		TLP1		001036'
RESET	047000	000000		TMPCOR		000044	spd
RETRPG		000065'		TMPDON		002222'
RPGCK2		002231'		TMPEND		000033'
RPGFN		001656'		TMPFIL		002661'
RPGFN2		001672'		TMPFLG		002636'
RPGIGN		001662'		TOP		000015	spd
RPGIN		002156'		TRY0		000545'
RPGIN1		002160'		TRYNXT		000554'
RPGIN2		002170'		TSTLST		002264'
SBTBUF		002641'		TTYIN		002156'
SETLAB		001216'		TX		000006	spd
SETPNM		000462'		TYMREL		000003	spd
SLASH		001710'		TYMSPC		000014	spd
SLEEP	047000	000031		TYO		002152'
SOBUF		003276'		UPPLIM		003424'
SONAM		003272'		UTPCLR	047000	000013
SOP		000004	spd	VCREF	076060	000060	spd
SORT		000512'		WAIT	072000	000000
SRCH		001330'		WAITL		002416'
SRCH1		001343'		WATLPT		002412'
STCLR		003301'		WPL		000003	spd
STV10		001406'		WPLLPT		000016	spd

VERSION 14.3-37.0
CROSS (OR CREF) - VERSION 14.3-37.0	MACRO %53B(1156)-1 17:40 25-Feb-88 Page 1
CROSS	MAC	15-Sep-76 01:35		CROSS REFERENCE GENERATION PROGRAM -AUG 21,1975


Symbol cross reference

A	    81#	  1484
AC0	    22#	   242	   243	   244	   246	   252	   253	   254	   282	   287	   486	   490	   493	   498
	   499	   501	   757	   759	   762	   879	   880	   891	   897	   904	   905	   907	   908	   909
	   915	   922	   925	   932	   935	   936	   938	   939	   940	   941	   942	   943	   948	   949
	   950	   963	   977	   985	  1005	  1006	  1012	  1063	  1074	  1086	  1327	  1328	  1353	  1354
	  1360	  1362	  1525	  1530	  1531	  1534	  1589	  1592
ACDEL	    94#	  1324	  1355	  1358	  1359	  1361
ACDEV	    91#	   323	   327	   329	   333	   334	   347	   348	  1323	  1353	  1477	  1478	  1479	  1484
	  1485	  1486	  1500	  1501	  1503	  1506	  1509	  1510	  1515
ACEXT	    93#	   336	  1324	  1362	  1504	  1505	  1507	  1508	  1512	  1513
ACFILE	    92#	   335	  1323	  1354	  1360	  1480	  1481	  1482
ACPNTR	    95#	  1327	  1349	  1350
AL	    82#	   263	   338
BBEG	   856	   992#
BBEND	   857	   997#
BLKND	   414	   908	  1016	  1018	  1022	  1803#	  1804
BLKP1	  1033	  1036#
BLKP2	  1040	  1044#
BLKP3	  1030#	  1059
BLKPRN	   535	  1021#
BLKST	   413	   534	  1796#
BYTAB	  1420	  1472#
BYTAB0	  1438#	  1448	  1448#	  1450	  1450#	  1464	  1464#	  1473
BYTAB1	  1439#	  1452	  1452#	  1454	  1454#	  1456	  1456#	  1466	  1466#	  1468	  1468#	  1471	  1471#	  1474
BYTAB2	  1440#	  1445	  1445#	  1458	  1458#	  1460	  1460#	  1462	  1462#	  1475
BYTEM	    29#	    30	   597	   614	   615	   715	   721	  1031	  1032	  1033	  1035	  1036	  1038	  1177
BYTEX	    28#	   534	   540	   547	   554	   596	   598	   619	   621	   623	   644	   647	   649	   650
	   654	   672	   712	   713	   714	   715	   718	   719	   720	   721	   722	   891	   892	   915
	   916	   925	   926	   934	   936	   944	   950	   952	   955	   957	   963	   964	   967	   968
	   974	   975	   978	   979	   980	  1031	  1036	  1037	  1044	  1046	  1049	  1056	  1058	  1059
	  1063	  1064	  1079	  1080	  1087	  1088	  1096	  1097	  1140	  1157	  1158	  1160	  1161	  1162
	  1167	  1168	  1177	  1182	  1183	  1185	  1186	  1188
C	    32#	   317	   331	   345	   402	   403	   404	   407	   409	   433	   444	   446	   448	   450
	   451	   457	   458	   460	   467	   473	   488	   491	   492	   493	   521	   564	   565	   566
	   567	   569	   571	   572	   576	   577	   578	   579	   582	   598	   599	   600	   601	   602
	   604	   605	   608	   609	   611	   613	   614	   623	   625	   629	   641	   648	   652	   655
	   663	   671	   732	   734	   736	   747	   752	   756	   760	   761	   762	   769	   773	   775
	   779	   789	   790	   793	   800	   801	   804	   805	   808	   810	   811	   813	   815	   817
	   826	   828	   830	   866	   869	   871	   953	   954	   955	   957	  1024	  1028	  1041	  1053
	  1056	  1098	  1100	  1102	  1103	  1104	  1105	  1107	  1112	  1115	  1137	  1138	  1143	  1147
	  1149	  1151	  1153	  1167	  1173	  1175	  1181	  1190	  1192	  1194	  1195	  1198	  1205	  1207
	  1217	  1218	  1220	  1221	  1228	  1229	  1233	  1239	  1240	  1245	  1246	  1247	  1248	  1249
	  1289	  1290	  1291	  1292	  1293	  1294	  1296	  1314	  1315	  1318	  1319	  1332	  1334	  1336
	  1338	  1340	  1341	  1343	  1344	  1346	  1348	  1350	  1355	  1363	  1375	  1378	  1381	  1385
	  1386	  1389	  1394	  1401	  1409	  1410	  1413	  1417	  1418	  1422	  1423	  1424	  1425	  1427
	  1527	  1528	  1531	  1538	  1540	  1542	  1544	  1545	  1552	  1553	  1556	  1557	  1560	  1561
	  1562	  1563	  1565	  1566	  1567	  1568	  1570	  1571	  1612	  1614	  1642	  1643	  1658	  1704
	  1711	  1712	  1713	  1723	  1724	  1725	  1731	  1732	  1734
CHAR	    85#	  1301	  1303	  1305	  1486	  1490	  1492	  1493	  1495	  1496	  1497	  1502	  1514	  1617
VERSION 14.3-37.0
CROSS (OR CREF) - VERSION 14.3-37.0	MACRO %53B(1156)-1 17:40 25-Feb-88 Page 1
CROSS	MAC	15-Sep-76 01:35		CROSS REFERENCE GENERATION PROGRAM -AUG 21,1975


Symbol cross reference

	  1618	  1621	  1645
CHDOT	   603	   608#
CHLP	   598#	   616
CHOK	   606	   610	   613#
CHOLD	   477	   804	  1763#
CKEQ	   628	   631#
CKEQ2	   653	   663#
CKRPGI	  1550	  1574#
CMB1	   919#	   923
CMB2	   929#	   933
CMB3	   958#	   981
CMBOK	   937	   944#
CNVR1	   564#	   570
CNVRT	   471	   563#	   737	  1057
COMBG	   994	   999	  1003#
COMBIN	   849	   913#
CPOPJ	   677#	   880
CREF	    18	   233#	   270	   306	  1311	  1595	  1598	  1718	  1806
CREF1	   284#	   287
CRLF	   316	   505	  1287	  1288	  1538#	  1717	  1729
CS	    33#	   352	   354	   359	   542	   549	   556	   559	   584	   591	   683	   686	   688	   695
	   696	   700	   702	   742	   747	   748	  1022	  1026	  1044	  1049	  1050	  1051	  1148	  1188
	  1189	  1191	  1296	  1325	  1447	  1449	  1491	  1494	  1498	  1624	  1635	  1665	  1666	  1674
	  1683	  1706	  1707	  1710	  1711	  1720	  1721	  1723	  1741	  1742	  1743	  1748	  1749
CTIBUF	   246	   257	   259	   268	  1319	  1320	  1549	  1551	  1552	  1555	  1557	  1560	  1769#
CTIDEV	   267	  1761#
CTIDIR	   289	   291	   292	   293	  1772#
CTLI	    84#	   269	   271	   293	  1524	  1577	  1579	  1599
DECREL	     4#	    12
DECSPC	     3#	    12
DEFBYP	   896	   901	   911#	   921
DEFFD	   898	   902#
DEFMAC	   853	   885#
DEFS1	   897#	   900
DEFSYM	   850	   886#
DEVICE	  1337	  1353#
DFLAB	   798	   878#	   888	   913	   983
DFLABD	   877#	   989
DLAB	   843	   989#
DLBEXT	   858	   988#
DMPLST	  1238	  1243	  1631#
DOBLK	   694#
DTAB	   779	   842#
DVFNEX	  1625	  1636	  1667	  1675	  1684	  1702#
EATLIN	   814	   824#
ENDCLR	   309	  1804#
ENDRT	  1248	  1253#
ENDTL	   867	   873#
ERRAVI	  1487	  1663#
VERSION 14.3-37.0
CROSS (OR CREF) - VERSION 14.3-37.0	MACRO %53B(1156)-1 17:40 25-Feb-88 Page 1
CROSS	MAC	15-Sep-76 01:35		CROSS REFERENCE GENERATION PROGRAM -AUG 21,1975


Symbol cross reference

ERRAVL	  1666#	  1744
ERRCM	  1367#	  1390	  1395	  1419	  1424	  1426
ERRCOR	  1264	  1690#
ERRENT	   374	  1674#
ERRFIN	  1700	  1708	  1712	  1717#
ERRFND	  1510	  1681#
ERRMSG	  1367	  1581	  1690	  1699#
ERROR	   503#	   777	   803	   837	   852	   855
FAILM	   445	   768#
FCKLF	   449	   525#
FINI0	   553	   559#
FINIS	   561	  1281#
FINIS1	  1293	  1296#
FINOUP	   728	   740#
FIRSTL	  1235	  1470	  1518	  1534	  1791#
FLAG	    35#	   338	   339	   340	   341	   514	   515	   624	   627	   631	   633	   634	   636	   638
	   658	   659	   660	   665	   666	   669	   709	   710	   711	   712	  1142	  1750
FM2	   772#	   780	   786	   910	   912	   962	   986	   990	   995	  1001
FM4	   758#	   763
FM6	   785#
FND	   664	   671#
FREAD	   755#	   784	   890	   902	   911	   914	   924	   984	  1003
FREE	    36#	   371	   372	   383	   384	   385	   386	   413	   414	   416	   417	   418	   944	   945
	   946	   970	   971	   972	  1008	  1009	  1010	  1082	  1083	  1084	  1091	  1092	  1093	  1160
	  1161	  1163	  1164	  1289
FSTPNT	   958	   960	   966	   968	  1078	  1080	  1797#
GETIOC	  1331#	  1351	  1379	  1399	  1402
GETLI1	  1408#	  1414
GETLIM	  1388	  1393	  1407#
GETV10	  1182#	  1191
GETV12	  1184	  1188#
GETV20	  1172	  1177#
GETVAL	   727	  1171#
GORPGO	   261	   298#
HASH	    79#	   619	   647	   649	   892	   916	   926	   964	  1064	  1799	  1800	  1801
HOUT	   735	   746#
HWD	   595#	   595	   742	   743	   746	   748	   750	   752
I	  1445#	  1445	  1448#	  1448	  1450#	  1450	  1452#	  1452	  1454#	  1454	  1456#	  1456	  1458#	  1458
	  1460#	  1460	  1462#	  1462	  1464#	  1464	  1466#	  1466	  1468#	  1468	  1471#	  1471
IECERR	   802#	   816
INBUF	  1485	  1610	  1612	  1770#
INDEV	   365	  1478	  1479	  1624	  1665	  1683	  1778#	  1779
INDIR	   369	   385	  1372	  1377	  1482	  1512	  1514	  1782#
INPT	  1500	  1774#
INSET	   363#
INSET1	   346	   364#
INSET2	  1491	  1498#
INSET3	  1500#
INSET4	  1504	  1510#
VERSION 14.3-37.0
CROSS (OR CREF) - VERSION 14.3-37.0	MACRO %53B(1156)-1 17:40 25-Feb-88 Page 1
CROSS	MAC	15-Sep-76 01:35		CROSS REFERENCE GENERATION PROGRAM -AUG 21,1975


Symbol cross reference

INSETF	   366	  1477#	  1648
INSETI	  1506	  1509	  1512#
INSRT	   626	   632	   637	   640#
IO	    38#	   233	   234	   240	   265	   274	   300	   314	   349	   375	   388	   390	   431	   439
	   442	   454	   455	   463	   465	   466	   470	   472	   474	   508	   509	   525	   526	   529
	   536	   538	   545	   552	   575	   580	   581	   587	   679	   690	   693	   724	   725	   729
	   731	   733	   740	   771	   778	   782	   783	   791	   807	   809	   870	   877	   878	   988
	  1060	  1099	  1101	  1106	  1117	  1127	  1129	  1135	  1171	  1174	  1193	  1204	  1210	  1215
	  1225	  1241	  1282	  1284	  1302	  1310	  1312	  1398	  1451	  1453	  1455	  1457	  1463	  1465
	  1467	  1520	  1597	  1620	  1646	  1663	  1681
IOCMB	    66#	   529	  1463
IODEF	    51#	   731	   782	   783	   877	   878	  1099	  1106	  1117	  1127	  1135	  1171	  1193
IODF2	    63#	   781	   845	   847
IOENDL	    52#	   454	   465	   526	   807
IOEOF	    55#	  1282	  1620	  1646
IOERR	    69#
IOEXT	    70#	   724	   725	   733	   778	   988	  1101	  1129	  1174
IOFAIL	    50#	   463	   771
IOJLST	    67#	   431	   442	  1465
IOLST	    47#	   439	   455	   470	   474	   791	  1457
IOMAC	    61#	   300	   520	   545	   846	   847	  1068	  1453
IONCRF	    48#	   509	  1398
IONLZ	    56#	   575	   580	   581
IOOP	    62#	   519	   552	   844	   845	  1066	  1455
IOPAGE	    49#	   300	   679	  1060	  1204	  1215
IORPG	    53#	   234	   240	   265	   274	   314	   390	  1284	  1302	  1310	  1312	  1520	  1597	  1663
	  1681
IOSAME	    58#	   690	   693
IOSOUT	    68#	   375	   388	   536	   587	   729	   740	  1467
IOSUBT	    71#	   870	  1225
IOSYM	    60#	   300	   522	   538	   881	  1070	  1451
IOTABS	    54#	   472	   525	   809
IOTB2	    57#	   466	   525
IOTTY	    59#	   349	  1210	  1241
ISBLK	   689	   693#
J	  1445#	  1445	  1448#	  1448	  1450#	  1450	  1452#	  1452	  1454#	  1454	  1456#	  1456	  1458#	  1458
	  1460#	  1460	  1462#	  1462	  1464#	  1464	  1466#	  1466	  1468#	  1468	  1471#	  1471
JOBDDT	    17#	   303	   421
JOBFF	    17#	   242	   253	   272	   302	   416	   423	  1501	  1503
JOBREL	    17#	   420	   424	  1261	  1265	  1274
JOBSYM	    17#	   422	  1275
JOBVER	    15#
L1	   625#	   630
L2	   620#	   644
L3	   623#	   643
L4	   629#	   639
LAST	   711	   718#
LEAVE	   295	  1594#	  1601
LEVEL	   992	   997	  1000	  1794#
VERSION 14.3-37.0
CROSS (OR CREF) - VERSION 14.3-37.0	MACRO %53B(1156)-1 17:40 25-Feb-88 Page 1
CROSS	MAC	15-Sep-76 01:35		CROSS REFERENCE GENERATION PROGRAM -AUG 21,1975


Symbol cross reference

LINE	    34#	   428	   429	   483	   512	   513	   521	   722	   723	   726	   835	   838	   839	  1014
	  1104	  1108	  1115	  1133	  1134	  1136	  1138	  1139	  1195	  1235
LINEX	   429	   479	   483	   817	   839	  1764#
LINKL	   646#	   646	   658	   661	   676
LINLP	   710#	   717
LINOUT	   682	  1021	  1030	  1200	  1203#	  1227	  1231	  1232
LN2COM	   824	   826	   828	   830	   835	   838	  1766#
LNKOUT	   681	   705#
LOWLIM	   512	  1391	  1397	  1792#
LPP	  1203	  1221	  1250	  1789#
LST	    86#	   324	   328	   341	   343	   351	   353	   355	   356	   358	   362	   373	  1286	  1306
	  1308	  1631	  1632	  1750
LSTBUF	   340	  1237	  1239	  1771#
LSTDEV	   329	   334	   339	  1635	  1666	  1674	  1741	  1788#
LSTDIR	   335	   336	   367	   370	   372	   373	   401	  1783#
LSTS2	   332	   338#
LSTS4	  1521	  1525#
LSTS5	  1526#	  1532
LSTS6	  1529	  1534#
LSTS7	  1519	  1535#
LSTSE3	   352	   359#
LSTSET	   315	   323#
M1	   432	   439#	   443	   447	   456	   461	   464	   527	   794
M2	   435	   441#	   484	   497	   506	   530	   806	   840
M2A	   434	   444#
M2B	   470#	   818
M2BINC	   477#	   812
M2C	   453	   463#
M3	   468	   486#
M4	   487#	   494
M5	   496	   499#	   785	   883
M5A	   489	   496#
M6	   501	   508#
MACTBL	   547	   885	  1069	  1801#
MOVS1	   969	   974#
MOVSYM	   931	   963#
MTAB	   467	   519#
NAME	  1339	  1354#
NAME1	   330	   363	  1323#	  1647
NAME3	  1327#	  1356
NOASNM	   368	   373#
NOBLK	   691	   700#
NOBLK2	   699	   702#
NOMAC	   546	   552#
NOSO	   730	   737#
NOSOUT	   380	   388#
NOSPLP	   402#	   406
NOSPO	   376	   390#
NOSPO0	   403	   407#
VERSION 14.3-37.0
CROSS (OR CREF) - VERSION 14.3-37.0	MACRO %53B(1156)-1 17:40 25-Feb-88 Page 1
CROSS	MAC	15-Sep-76 01:35		CROSS REFERENCE GENERATION PROGRAM -AUG 21,1975


Symbol cross reference

NOSPO1	   391	   411#
NOSYM	   539	   545#
NOTINF	   770	   789#
NTFND	  1073	  1078#
NTFND1	  1081	  1086#
NXTENT	   622	   644#
NXTSY	   650#	   654
OPTBL	   554	  1067	  1799#
OUTAS1	   576#	   584
OUTASC	   575#	   685	   698	  1023	  1027	  1045
OUTNWT	   405	   408	   410	  1656#
OUTP	   544	   551	   558	   675#
OUTP1	   704	   709#
OUTP2	   716	   726#
OUTPA	   680#	   707
OUTTL	  1223	  1245#
OUTTL1	  1247#	  1252
OUTTLX	  1230	  1246#
OUTWD	   560	   587#	   678	   684	   697	   701	   703	   744	   749
P	    39#	   236	   311	   316	   318	   330	   342	   363	   364	   365	   366	   369	   370	   405
	   408	   410	   427	   430	   440	   441	   457	   459	   460	   471	   475	   487	   496	   503
	   504	   505	   510	   517	   535	   537	   541	   544	   548	   551	   555	   558	   560	   567
	   570	   571	   583	   585	   588	   592	   607	   612	   617	   656	   677	   678	   682	   684
	   685	   694	   697	   698	   701	   703	   704	   706	   716	   727	   735	   737	   741	   749
	   751	   753	   755	   758	   764	   768	   772	   784	   785	   789	   792	   793	   798	   799
	   825	   827	   829	   865	   887	   888	   889	   890	   902	   911	   913	   914	   924	   947
	   973	   983	   984	   989	   994	   999	  1003	  1011	  1019	  1021	  1023	  1025	  1027	  1029
	  1030	  1034	  1042	  1045	  1054	  1057	  1061	  1085	  1094	  1120	  1123	  1145	  1148	  1152
	  1153	  1154	  1165	  1169	  1176	  1178	  1179	  1180	  1196	  1200	  1206	  1208	  1213	  1217
	  1219	  1223	  1227	  1230	  1231	  1232	  1233	  1236	  1238	  1242	  1251	  1253	  1258	  1259
	  1260	  1276	  1277	  1278	  1279	  1287	  1288	  1295	  1297	  1299	  1307	  1313	  1330	  1331
	  1364	  1366	  1374	  1384	  1388	  1392	  1393	  1403	  1404	  1408	  1411	  1416	  1426	  1428
	  1526	  1535	  1539	  1546	  1572	  1615	  1633	  1647	  1648	  1656	  1660	  1661	  1699	  1702
	  1703	  1705	  1709	  1714	  1715	  1717	  1722	  1726	  1729	  1733	  1735	  1743	  1754
PDL	    45#	   236	   311	  1785
PNAME	   594#	   594	   597	   702
PNTM1	  1299	  1731#	  1736
PNTMSG	   504	  1699	  1702	  1729#
PNTSIX	  1703	  1709	  1715	  1720#
PNTSX1	  1721#	  1727
POPOUT	  1169#
PPSAV	   427#	   427	   503
PPSET	   236	   311	  1785#
PPTEMP	  1145	  1154	  1790#
PROGN1	  1372#	  1376
PROGN2	  1366	  1373#
PROGN3	  1374#	  1382
PROGNP	  1347	  1366#
R0	   533#	  1644
VERSION 14.3-37.0
CROSS (OR CREF) - VERSION 14.3-37.0	MACRO %53B(1156)-1 17:40 25-Feb-88 Page 1
CROSS	MAC	15-Sep-76 01:35		CROSS REFERENCE GENERATION PROGRAM -AUG 21,1975


Symbol cross reference

R0A	   523	   529#
R3	   727#	   738
RC	    26#	   502	   776	   802	   836	   851	   854	  1298	  1367	  1372	  1373	  1377	  1380	  1381
	  1391	  1396	  1397	  1407	  1412	  1413	  1420	  1421	  1423	  1581	  1625	  1636	  1667	  1675
	  1684	  1690	  1730	  1731
RDTTL	   859	   861#
READ	   430	   441	   487	   755	   758	   768	   772	   799	   865	  1609#
READ0	  1608	  1610#	  1614	  1649
READ1	  1612#	  1619
READ3	  1611	  1617#
READ4	  1622	  1642#
READXX	   825	   827	   829	  1607#
RECYCL	   416#	  1283
RETRPG	   275	   300#	  1321
RPGCK2	  1580	  1597#
RPGFN	  1285	  1301#
RPGFN2	  1313#	  1317
RPGIGN	  1305#	  1664	  1682
RPGIN	  1549#	  1558	  1561
RPGIN1	  1551#	  1578
RPGIN2	  1554	  1560#
SBTBUF	   675	  1228	  1765#
SETLAB	   842	   983#
SETPNM	   537	   594#
SLASH	  1330#	  1333
SOBUF	   379	   589	   591	  1776#
SONAM	   381	   382	   384	   386	   387	  1775#
SOP	    87#	   377	   387	   389	   590	  1309
SORT	   541	   548	   555	   619#
SRCH	   516	  1063#
SRCH1	  1074#	  1077
STCLR	   307	   308	  1779#
STV10	  1075	  1112#
STV10A	  1116	  1125#
STV10B	  1118	  1122#
STV10C	  1121	  1124	  1129#
STV10D	  1132#
STV12	  1110	  1142#
STV14	  1147#	  1150
STV16	  1151#	  1155
STV20	  1144	  1152	  1157#
STV22	  1159	  1167#
SVJFF	   254	   273	   301	  1760#
SVLAB	   848	   879	   882	   985	  1795#
SVLET	  1363#	  1363	  1642
SVPTR	  1246#	  1246	  1247
SW0	  1330	  1416#
SW1	  1403	  1417#
SWIT1	  1387	  1401#	  1405
VERSION 14.3-37.0
CROSS (OR CREF) - VERSION 14.3-37.0	MACRO %53B(1156)-1 17:40 25-Feb-88 Page 1
CROSS	MAC	15-Sep-76 01:35		CROSS REFERENCE GENERATION PROGRAM -AUG 21,1975


Symbol cross reference

SWITCH	  1335	  1384#
SWTAB	  1425	  1427	  1442#	  1445	  1448	  1450	  1452	  1454	  1456	  1458	  1460	  1462	  1464	  1466
	  1468	  1471
SWTABT	  1425	  1445#
SX	    27#	   508	   519	   520	   522	   543	   550	   557	   620	   621	   622	   624	   633	   638
	   640	   641	   642	   657	   660	   667	   672	   675	   676	   680	   683	   686	   687	   695
	   705	   709	   718	   780	   781	   844	   845	   846	   847	   848	   881	   885	   886	   887
	   889	   894	   895	   897	   899	   907	   909	   918	   919	   920	   922	   935	   938	   940
	   941	   943	   948	   953	   959	   960	   978	   993	   998	  1015	  1037	  1039	  1040	  1043
	  1046	  1047	  1048	  1052	  1055	  1066	  1068	  1070	  1072	  1074	  1076	  1078	  1079	  1082
	  1086	  1088	  1089	  1090	  1108	  1109	  1112	  1113	  1133	  1142
SYMTBL	   540	   886	   918	   928	   974	   976	  1071	  1800#
TABOUT	   694	  1034	  1180	  1198#	  1201
TEMP	    23#	    91	   247	   248	   249	   250	   252	   255	   256	   257	   258	   259	   263	   264
	   266	   267	   268	   269	   283	   284	   285	   286	   288	   289	   290	   291	   396	   398
	   400	   406	   477	   478	   480	   481	   563	   568	   635	   636	   667	   668	   669	   863
	   864	   871	   874	   919	   920	   961	   992	   997	  1013	  1016	  1017	  1114	  1119	  1122
	  1125	  1126	  1128	  1130	  1131	  1522	  1523	  1589	  1590	  1656	  1657	  1658	  1660
TEMP1	    24#	    92	   397	   398	   401	   402	   756	   763	   861	   868	   873	   874	   928	   929
	   930	   932	   934	   939	   942	   949	   951	   952	   954	   955	   966	   967	   970	   975
	   976	   977	   979	   980	  1008	  1012	  1013	  1014	  1015	  1017	  1018	  1591
TEMPC	    20	   238	  1575	  1588
TEND	   774	   798#	   875
TERM	  1342	  1345	  1358#
TIBUF	   596	   862	   864	  1222	  1224	  1245	  1786#
TIO	    31#	   350	   361	  1325	  1444	  1459	  1461	  1489
TIOCLD	   101#	   361	  1444
TIOLE	   100#	  1459
TIORW	    99#	   350	  1461	  1489
TLP1	   865#	   868	   872
TMPCOR	   111#	   250	  1592
TMPDON	  1576	  1589#
TMPEND	   241	   251	   262#
TMPFIL	   244	   245	   248	   249	  1773#
TMPFLG	   239	   260	  1575	  1762#
TOP	    37#	   420	   422	   423	   424	   425	   946	   972	  1010	  1084	  1093	  1164	  1270	  1273
	  1274
TRY0	   647#	   662
TRYNXT	   651	   654#	   670	   673
TSTLST	  1307	  1632#
TTYIN	  1313	  1331	  1374	  1384	  1392	  1404	  1408	  1416	  1526	  1548#	  1564	  1569
TX	    30#	    93	   625	   627	   629	   631	   635	   640	   642	   650	   652	   657	   659	   661
	   663	   665	   671	   687	   688	   893	   894	   895	   917	   918	   927	   928	   929	   930
	   958	   959	   961	   965	   974	   976	  1065	  1067	  1069	  1071	  1072	  1087	  1089	  1091
	  1095	  1096	  1103	  1109	  1113	  1114	  1131	  1140	  1168
TYMREL	     2#	    12
TYMSPC	     1#	    12
TYO	   318	  1295	  1297	  1539	  1542#	  1705	  1714	  1726	  1735
UPPLIM	   312	   513	  1396	  1793#
VERSION 14.3-37.0
CROSS (OR CREF) - VERSION 14.3-37.0	MACRO %53B(1156)-1 17:40 25-Feb-88 Page 1
CROSS	MAC	15-Sep-76 01:35		CROSS REFERENCE GENERATION PROGRAM -AUG 21,1975


Symbol cross reference

VCREF	    13#	    15
WAITL	  1748#	  1751
WATLPT	   342	  1741#
WPL	    25#	    26	  1199	  1209	  1211
WPLLPT	    42#	  1209
WPLTTY	    43#	  1211
WRITE	   440	   459	   475	   573	   792	  1025	  1029	  1042	  1054	  1176	  1206	  1208	  1216	  1219
	  1235#	  1251
WRITE0	   583	  1199	  1215#
XCEED	   947	   973	  1011	  1085	  1094	  1165	  1258#
XCEED1	  1267#	  1271
XCEED2	  1263#
ZEROS	  1303	  1599	  1781#
%EOF	    78#	   433	   450
%IGNUL	  1607	  1609	  1613	  1767#
%LINE	    76#
%MAC	    75#
%OP	    74#	   451	   467
%SYM	    77#
.LPP	    44#	  1220
VERSION 14.3-37.0
CROSS (OR CREF) - VERSION 14.3-37.0	MACRO %53B(1156)-1 17:40 25-Feb-88 Page 1
CROSS	MAC	15-Sep-76 01:35		CROSS REFERENCE GENERATION PROGRAM -AUG 21,1975


Macro/Opdef cross reference

CORE	   106#	   305	  1263
DDTOUT	   109#	  1523	  1545
DEVCHR	   104#	   347
EXIT	   110#
OUTSTR	   294	  1745	  1752
RESET	   103#	   235
SETCOD	  1436#	  1445	  1448	  1450	  1452	  1454	  1456	  1458	  1460	  1462	  1464	  1466	  1468	  1471
SETSW	  1430#	  1443	  1446	  1448	  1450	  1452	  1454	  1456	  1458	  1460	  1462	  1464	  1466	  1469
SLEEP	  1749
TITL	     6#	    12
UTPCLR	   107#	   362
WAIT	   105#	   355	  1495yRn&